:020000040800F2
:1000000080530020450100087F120008ED11000810
:100010007D120008CF0D0008F9160008000000004E
:100020000000000000000000000000006D14000847
:10003000970E000800000000F91200085D0100089A
:100040005F0100085F0100085F0100085F01000810
:100050005F0100085F0100085F0100085F01000800
:100060005F0100085F0100085F0100085F010008F0
:100070005F0100085F0100085F0100085F010008E0
:10008000ED0D00085F0100085F0100085F01000836
:100090005F0100085F0100085F0100085F010008C0
:1000A0005F0100085F0100085F0100085F010008B0
:1000B0005F0100085F0100085F0100085F010008A0
:1000C0005F0100085F0100085F0100085F01000890
:1000D0005F0100085F0100085F0100085F01000880
:1000E0005F0100085F0100085F0100085F01000870
:1000F0005F0100085F0100085F0100085F01000860
:100100005F010008091400085F0100085F01000892
:100110005F0100085F0100085F0100085F0100083F
:100120005F0100085F0100085F0100085F0100082F
:10013000DFF80CD000F0FCFB00480047A1210008CC
:10014000805300200648804706480047FEE7FEE748
:10015000FEE7FEE7FEE7FEE7FEE7FEE7FEE7FEE777
:10016000251500083101000800487047883F000845
:1001700010B50446FFF7F8FF0068005D00F00100CD
:1001800010BD40EA01039B0703D009E008C9121F14
:1001900008C0042AFAD203E011F8013B00F8013B41
:1001A000521EF9D27047D2B201E000F8012B491E6D
:1001B000FBD270470022F6E710B513460A46044604
:1001C0001946FFF7F0FF204610BD421C10F8011B36
:1001D0000029FBD1801A7047CBB203E00178994225
:1001E00003D0401C521EF9D20020704730B504469F
:1001F0000020034600E05B1C934203D2E05CCD5C30
:10020000401BF8D030BD2DE9F04791460F4680469F
:100210000446002614F8015B2DB1FFF7A5FF006826
:10022000405DC007F6D12B2D02D02D2D18D0641EB5
:100230004A463946204600F067FA27B13968A1429C
:1002400001D1C7F8008071054FF002040BD5404280
:10025000002803DD01F078FA0460A007BDE8F0870C
:1002600046F48066E4E70028F8DA01F06DFA0460ED
:100270006FF00040F2E72DE9FE4F804681EA03006F
:10028000C00F0C46009021F0004123F00045B8EB70
:100290000200A94105D24046214690461C460B4625
:1002A000024623F00040104347D0270DC7F30A0051
:1002B000C3F30A510290401A019040286BDAC3F34D
:1002C000130040F4801B0098924620B10023D2EB2B
:1002D000030A63EB0B0B01985946C0F140025046EC
:1002E00000F0E1F906460D4650465946019A00F0E5
:1002F000F9F910EB08006141002487EA115284EA01
:10030000E7731A4340D0009A62B3019A012A4FEA78
:10031000075215DC001B61EB02014FF0004202EABC
:100320000752CDE90042001C41F5801132462B46B0
:1003300000F097FA03B0BDE8F08F40462146F9E798
:10034000001B61EB0201001C41F5801300185B41AA
:100350002018A2F5001747EB030140EAD570B61943
:100360006D4111E06D084FEA360645EAC0754FEA67
:100370000752001B61EB0201001C41F58011490886
:100380004FEA30000019514132462B4603B0BDE818
:10039000F04F00F057BA0098012240000023D0EB44
:1003A000020263EBE073009821464FEAE074B8EB79
:1003B000000061EB0401E9E783F000435BE781F0B3
:1003C000004158E72DE9FE4F81EA030404F00044A0
:1003D00021F0004100944FF0000B23F0004350EA5D
:1003E00001045ED052EA03045BD0C3F30A54C1F3A4
:1003F0000A552C44A4F2F3340194A0FB0254C1F337
:10040000130141F48011C3F3130343F4801301FB80
:10041000024400FB034E840A970A44EA815447EAE7
:100420008357A4FB076802958D0A05FB07854FEAF1
:10043000932C04FB0C542705029D4FEA065847EA0B
:100440001637B5EB08056EEB070C870E920E47EAE0
:10045000811742EA8312A7FB0201B6EB0B0164EBA2
:1004600000042B0D43EA0C335E1844EB1C50DA46B3
:100470005146E7FB0201C5F313044FEA0B3343EA8D
:1004800014534FEA0432019C43EA0603A4F10C041E
:100490000294009CCDE900B400F0E3F903B0BDE89C
:1004A000F08F00200146F9E72DE9F04D81EA0304C1
:1004B00004F0004B21F0004514464FF0000A23F0F1
:1004C000004150EA050220D054EA01021DD0C5F3D4
:1004D0000A570246C5F31303C1F31300C1F30A56CA
:1004E00040F4801543F48013A7EB0608101BD64692
:1004F00008F2FD3873EB050002D308F1010801E0B2
:1005000092185B41B8F1000F03DA00200146BDE804
:10051000F08D00204FF48011064684460EE0171B34
:1005200073EB050705D3121B63EB050306434CEA87
:10053000010C49084FEA300092185B4150EA01076C
:10054000EDD152EA030012D082EA040083EA0501E9
:10055000084305D0101BAB4106D20122002306E060
:1005600000224FF0004302E06FF0010253101AEB3B
:1005700006004CEB085110EB0A0041EB0B01BDE803
:10058000F04D00F05FB90EB5C10F80EAE07008448D
:10059000CA07002140F233438DE80E000A460B469D
:1005A00000F05FF903B000BD70B5C1F30A5201F06D
:1005B00000450024C1F3130140F2FF3341F48011E0
:1005C0009A4201DA002070BD40F233439A42A2F20F
:1005D000334203DC524200F075F800E090402C43B7
:1005E000F1D0404270BD000030B5041E71F100042E
:1005F00004DB4FF00044404264EB0101141E73F130
:10060000000405DB1C464FF00043524263EB040339
:10061000994208BF904230BD30B50B4601460020DC
:100620002022012409E021FA02F59D4205D303FAB4
:1006300002F5491B04FA02F52844151EA2F1010235
:10064000F1DC30BD2DE9F05F0546002092469B4667
:1006500088460646814640241BE0284641464746D8
:10066000224600F02FF853465A46C01A914110D343
:1006700011461846224600F016F82D1A67EB0108BD
:100680004F4622460120002100F00DF817EB00092B
:100690004E41201EA4F10104DFDC484631462A46C3
:1006A0004346BDE8F09F202A04DB203A00FA02F11D
:1006B000002070479140C2F1200320FA03F3194350
:1006C00090407047202A04DB203A21FA02F00021F2
:1006D000704721FA02F3D040C2F120029140084352
:1006E00019467047202A06DBCB17203A41FA02F060
:1006F00043EAE07306E041FA02F3D040C2F120027F
:1007000091400843194670472DE9F05F8246007812
:10071000002715468B460AF10104B946302801D05E
:100720009DB113E014F8010B0127782803D0582855
:1007300001D045B10AE00DB1102D07D100271025D9
:1007400014F8010B02E0082500E00A250026B04657
:100750000EE005FB080005FB06F1012701EB104642
:100760001FFA80F8B6F5803F00D3B94614F8010BA4
:10077000294600F0EFF80028EBDABBF1000F05D0B6
:100780000FB1641E00E05446CBF80040B9F1000FF1
:1007900006D000F0D9FF02210160C81EBDE8F09F1D
:1007A00048EA0640FAE700000FB4002300B589B01C
:1007B0000CA900910B996FF00042CB601E4B069381
:1007C0001E4B07930423CDE901321D4A08920246CD
:1007D0006B46002000F060F909B05DF814FB70B5BD
:1007E00086B006464FF0FF300091CDE901010020B0
:1007F00015460C4604903246694604A8FFF7D4FF1C
:1008000002460498211825B108B1084600E02046A8
:100810002860049800280DD0002A02DD0098884244
:1008200008D0081B0094CDE901043246694604A8AB
:10083000FFF7BAFF06B070BDD10C0008EF0C00083E
:100840007101000810B5141E73F1000408DA401C91
:1008500041F1000192185B411A4301D120F00100DF
:1008600010BD2DE9F04D92469B4611B1B1FA81F2CF
:1008700002E0B0FA80F220329046FFF714FF0446FF
:100880000F4640EA0A0041EA0B0153465A46084324
:1008900013D0114653EA010019D0C8F14002504666
:1008A000FFF710FF05460E46504659464246FFF7F1
:1008B000FAFE084305D0012004E020463946BDE891
:1008C000F08D0020054346EAE0762C4337430A9832
:1008D0006305E40AA0EB08000022FD0A44EA47543D
:1008E0000A3002D500200146E9E7010510196941E7
:1008F000DDE9084500196941BDE8F04DA2E7C1F303
:100900000A52C1F3130140F2FF3341F480119A42BD
:1009100002DA00200146704740F233439A42A2F2C5
:10092000334202DC5242FFF7CDBEFFF7BCBE0000EF
:10093000064C074D06E0E06840F0010394E807002C
:1009400098471034AC42F6D3FFF7F6FB7C40000822
:100950009C4000083A2800D2303820F02002412A7A
:1009600001D3A2F13700884201D34FF0FF30704726
:100970002DE9FF4F087883B09946FF2805D0491C20
:100980002D2804D00024002008E000200BE00124E2
:10099000F9E700EB800003EB4000491C0B78FF2BCC
:1009A000F7D104B1404200230293147819461D4642
:1009B0002D2C01D02B2C04D1521C2D2C13D0002413
:1009C0000294AA461478FF2C0FD00A25A3FB0578C1
:1009D00001FB05814FF0000C03FB0C11521CE319C5
:1009E0004AEB0101EEE70124EAE7814453EA010002
:1009F00002D019F5C87F06DA03980021C0E900117A
:100A000007B0BDE8F08F0025AE4E2F46DFF8B88264
:100A1000184600F07DF9CDE90001B9F1000002DAD5
:100A2000C9F1000400E004460023A74A1AEB030BB7
:100A300042EB045A12E0E00707D02A463346384614
:100A40004146FFF7BFFC074688462A463346104614
:100A50001946FFF7B7FC05460E466410002CEAD194
:100A6000DDE90001B9F1000F5A46534606DAFFF7F7
:100A70001BFD3A464346FFF717FD05E0FFF7A2FCD2
:100A80003A464346FFF79EFC029A0AB181F00041C4
:100A9000039AC2E90001B3E72DE9FF4F1F468DB06D
:100AA000D7E901464FF0FF382E2045464FF00009A8
:100AB0000B90B9696D1C0E988847396A8246884741
:100AC0000028F6D1BAF1FF3F0AD024F4D064002EFA
:100AD00011DDBAF12B0F08D0BAF12D0F0BD102E0C6
:100AE000404611B08DE744F48064B9696D1C0E98DE
:100AF00088478246761E6946600501D52D2000E0B4
:100B00002B208DF8000001F1010B0DF1200809E008
:100B1000B9696D1C0E98884782460F9844F400749A
:100B2000761E0560002E02DDBAF1300FF0D00B9971
:100B30008A453ED144F0800406E00F99681CA9F173
:100B4000010944F400740860B9696D1C761E0E98A2
:100B5000884782463028F0D02BE00B998A4505D192
:100B6000200603D444F08004761E18E0504600F0BE
:100B7000C1FE08B30DF11301761E44F400748B45D9
:100B800008D2AAF130000BF8010B200607D5A9F115
:100B9000010003E0200602D409F101008146A0050E
:100BA00002D50F99681C0860B9696D1C0E988847BA
:100BB0008246002ED1DC53E0002E51DDBAF1650FE4
:100BC00002D0BAF1450F4BD1A00549D5B9696D1CCA
:100BD00024F44074761E0E9888478246002E0CDD61
:100BE0002B2804D0BAF12D0F07D144F48074B969D1
:100BF0006D1C0E9888478246761EE00501D52D2192
:100C000000E02B2108F8011BCDF82C8021E00DF12C
:100C10002901761E44F4007488450CD2AAF13000F4
:100C200010F0FF0088F8000002D10B99884509D91F
:100C300008F1010806E0E00501D5244801E042F290
:100C40000F708146B9696D1C0E98884782460F98CF
:100C50000560002E04DD504600F04CFE0028D6D181
:100C6000F9690E988847FF208BF8000088F800008B
:100C70000020069007904B466A4608A906A8FFF791
:100C800077FEA00502D46FF001002AE714F0240FCC
:100C90000AD0E00714D1DDE906123868031D3B6075
:100CA0000068C0E900120BE0DDE9060100F03CF845
:100CB0000146E00704D13868021D3A60006801600F
:100CC00028460EE7000014400000F03FF1D8FFFF77
:100CD000426842B1016811F8013B23B1521EC0E9DC
:100CE0000012184670470121C160881E7047426893
:100CF0005AB1C368016843B983688B4205D0491E65
:100D0000521CC0E90012002070474FF0FF307047BE
:100D10000EB540F2334202920022CDE90022134682
:100D2000FFF79FFD03B000BD01F0004330B421F098
:100D3000004150EA010206D00A0DA2F56072C1F32B
:100D40001301002A02DC30BC00207047440F44EA43
:100D5000C104C100E01830BC00EBC250AFF300800A
:100D60000029A8BF7047401C490008BF20F00100BF
:100D7000704710B4B0FA80FC00FA0CF050EA01049D
:100D800004BF10BC704749B1CCF1200421FA04F42F
:100D900011FA0CF118BF012121430843A3EB0C0108
:100DA000CB1D4FEA00614FEA102042BF002010BC6B
:100DB000704700EBC35010440029A4BF10BC70471B
:100DC000401C490008BF20F0010010BC7047FEE73E
:100DD0000548416B11F0450FFBD040F2FF51816394
:100DE000406900F0080070470080014000F09EB9A3
:100DF000C10002D502490860704702494860704747
:100E00000404024000000240002904D0016841F0BF
:100E100001010160704701684FF6FE7211400160E8
:100E20007047000002460020D10002D5044909683D
:100E300001E004490968114200D001207047000018
:100E40000004024000000240002A03D002680A4366
:100E50000260704702688A430260704730B50268DA
:100E600047F6F0739A430C6A8B682343D1E9044533
:100E70002C4323438C692343CC6923434C6A23438B
:100E80008C6A234313430360CA6842600A68826025
:100E90004968C16030BD70472DE9F0470F46002A10
:100EA00070D00C2A6ED8066844688568C168D0F88E
:100EB0001090D0F814A0BBB301EB0208B8F1180FE2
:100EC00019D3A8F11808012C16D0032C14D0052C26
:100ED00012D0072C10D0082C0ED00A2C0CD0042CC9
:100EE00011D0062C0FD0092C0DD00B2C0BD0022CBE
:100EF00010D00C2C1CD066E01F2D01D26D1C62E0BE
:100F00000125641C5FE01E2D01D26D1C5BE00125F4
:100F1000641C58E01D2D08D01C2D03D1F0B200F048
:100F200066F910B16D1C4EE00AE0012503244AE089
:100F30001F2D01D26D1C46E001250124761C42E0E4
:100F4000914202D3A1EB02083DE0A1EB020808F1B7
:100F50001808022C17D0042C15D0062C13D0082CFE
:100F600011D0092C0FD00B2C0DD0052C12D0072C32
:100F700010D00A2C0ED00C2C0CD0032C11D0012C2C
:100F80001AD020E028E0012D01D96D1E1BE01F259D
:100F9000641E18E0012D01D96D1E14E01E25641E8B
:100FA00011E0012D03D1F0B200F021F908B16D1E5E
:100FB00009E01C25022406E0012D01D96D1E02E086
:100FC0001F250C24761E3E607C60BD60C7F80C8037
:100FD000C7F81090C7F814A0BDE8F0872DE9F041DC
:100FE0000022CC7804F00F03E40601D58C7823436B
:100FF0000C784FF00F0714F0FF0F4FF0010C1CD0CE
:1010000005680CFA02F40E882640A64211D196001B
:1010100007FA06F825EA080503FA06F848EA05057E
:10102000CE78282E02D0482E02D002E0446100E0A3
:101030000461521C082AE4D305600A88FF2A1ED9DD
:101040004568002202F108060CFA06F40E882640D4
:10105000A64210D1960007FA06F825EA080503FA19
:1010600006F848EA0505CE78282E00D14461CE78EE
:10107000482E00D10461521C082AE3D34560BDE824
:10108000F0810161704710B500F070F8BDE81040C4
:10109000AFF3008010B58CB00121084600F02EF9A6
:1010A0001548019015480290002003904FF40071FC
:1010B00004910590802106910790089020210991C4
:1010C000C9010A910B900E4C01A92046FFF7C6FEFC
:1010D00000F018F8012206212046FFF7B5FE012195
:1010E0002046FFF791FE044801224021001F00F036
:1010F0008FFA0CB010BD00000444004080000020B6
:101100006C00024008B54FF4C06000F0EBF810200E
:101110008DF8000001208DF8010000218DF80210EB
:101120008DF80300684600F0ABF808BD70B54FF4C9
:1011300080063046FFF776FE0B4D012428B16C7017
:101140003046BDE87040FFF753BE4FF400163046FE
:10115000FFF768FE002805D02C703046BDE87040CF
:10116000FFF746BE70BD00001400002030B585B00A
:101170000121042000F0DEF80121480400F0CCF841
:101180000424ADF8104018208DF8130003208DF8CA
:101190001200144D04A92846FFF720FF0821ADF8DE
:1011A00010108DF8134004A92846FFF717FF4FF4DD
:1011B000165000900020ADF80400ADF80600ADF820
:1011C0000800ADF80C000C20ADF80A00064C69468A
:1011D000204600F02FFA0121204600F0CBF905B09F
:1011E00030BD00000008014000440040FEE700F56B
:1011F000FA60810701D0002070474FF4C871B0FB3E
:10120000F1F201FB120131B16421B0FBF1F201FBFB
:1012100012000028F0D001207047000038B50121ED
:10122000082000F087F82020ADF8000010208DF88D
:10123000030003208DF802000F4C69462046FFF79B
:10124000CDFE0121ADF8001069462046FFF7C6FE2D
:101250000221ADF8001069462046FFF7BFFE2021AD
:101260002046FFF70EFF01212046FFF70AFF02216B
:101270002046FFF706FF38BD000C0140FEE770472F
:1012800070B50F23C27801260178002A1ED0144AB7
:10129000126802F4E062C2F5E062120AC2F10404CC
:1012A000D3404578A54082781A402A43120101F1C3
:1012B000E02181F80024007800F01F018E404009F1
:1012C000800000F1E020C0F8006170BD01F01F0057
:1012D00086404809800000F1E020C0F8806170BDC0
:1012E0000CED00E002490843024908607047000025
:1012F0000000FA050CED00E070470000054A0029E7
:1013000003D0516901435161704751698143516173
:101310007047000000100240054A002903D0D1693F
:101320000143D1617047D1698143D16170470000A9
:1013300000100240054A002903D0916901439161E0
:10134000704791698143916170470000001002402D
:1013500010B5264A516801F00C01254B002927D011
:10136000042927D0082927D00360516801F0F00133
:101370000909204B5C5C0168E1404160546804F459
:10138000E064240A1C5D21FA04F48460546804F4C7
:101390006054E40A1B5DD940C160526802F44042C7
:1013A000920B144B1B1F9A5CB1FBF2F1016110BD53
:1013B0000360DAE70360D8E7516801F470115368FD
:1013C00003F48033022404EB914133B153689B034F
:1013D00007D5094B59430160C7E7074B59430160E3
:1013E000C3E7034B59430160BFE700000010024010
:1013F00000127A000400002000093D0001498863C2
:10140000704700000080014000F00EB8054A002936
:1014100003D0D16B0143D1637047D16B8143D1635A
:10142000704700000080014070B50E4CE16800205C
:1014300001290DD020704FF480752846FFF7DEFF9C
:1014400000212846FFF7E2FF01202061207870BDCF
:101450000549886040F24C40C8600C20FFF7B8FC9A
:101460002070E8E71800002000800140704700F07D
:1014700001B800000CB500220192009227480168D3
:1014800041F4803101604FF4A063016801F4003140
:1014900000910199491C0191009911B90199994252
:1014A000F3D10168890302D50121009100E0009287
:1014B0000099012930D11A490A6842F010020A60E5
:1014C0000A6822F003020A600A6842F002020A6017
:1014D0004168416041684160416841F48061416018
:1014E000416821F47C114160416841F4E811416098
:1014F000016841F08071016001688901FCD5416893
:1015000021F003014160416841F0020141604168FE
:10151000C1F381010229FAD10CBD00000010024084
:101520000020024010B50F48016841F00101016040
:1015300041680D4A1140416001680C4A1140016048
:10154000016821F480210160416821F4FE014160BD
:101550004FF41F018160FFF78AFF05494FF00060DB
:10156000086010BD001002400000FFF8FFFFF6FE0B
:1015700008ED00E0002904D0818941F40051818107
:101580007047818921F400518181704710B586B080
:1015900001210420FFF7CEFE01218803FFF7CAFED8
:1015A0004FF40070ADF8140018208DF817000320D8
:1015B0008DF81600144C05A92046FFF70FFD2115E4
:1015C000ADF8141004218DF8171005A92046FFF777
:1015D00005FD4FF4E13001900020ADF80800ADF8B2
:1015E0000A00ADF80C00ADF810000C20ADF80E00AC
:1015F000064C01A9204600F01DF801212046FFF706
:10160000B9FF06B010BD00000008014000380140DD
:10161000002A03D0828A0A4382827047828A8A43E0
:10162000828270470246002012880A4200D00120C0
:101630007047000030B585B004460D46208A4CF650
:10164000FF710840E98801432182A0894EF6F31119
:101650000840A9882A8911436A8902431143A1815C
:10166000A08A4FF6FF410840A9890143A18268463C
:10167000FFF76EFE1D48844201D1039800E00298F6
:10168000A189090408D500EBC00101EB001029680D
:101690004900B0FBF1F007E000EBC00101EB0010E6
:1016A00029688900B0FBF1F06422B0FBF2F1090176
:1016B0000B096FF018056B4300EB8300A3891D0431
:1016C0004FF0320307D503EBC000B0FBF2F000F09F
:1016D0000700084306E003EB0010B0FBF2F000F057
:1016E0000F000843208105B030BD000000380140E4
:1016F000C1F3080181807047FEE700000FB4054B7D
:1017000010B503A9044A029800F04CF910BC5DF82A
:1017100014FB0000ED200008700000207CB504469A
:1017200000201D46164600290BD0491ECDE9004178
:10173000044B6A462946304600F034F9009A0021ED
:1017400011707CBDD3200008004870477C00002049
:1017500002E008C8121F08C1002AFAD1704770477A
:10176000002001E001C1121F002AFBD170470000D8
:101770002DE9FF5F82B00021DDE90430020DDDF8C4
:1017800040B0034318D044F61050A2F2FF32424357
:101790001514119801281FD0A5EB0B00401C5FEA1F
:1017A000000A4FF000064E4FDFF83891B046504621
:1017B00015D5CAF1000413E0119801244AA30128A9
:1017C00001D16FEA0B010298119AC0E90031C0E91A
:1017D000024206B0BDE8F09FCBF10000DFE704460F
:1017E0000021404A491842EB0450CDE9001012E0B4
:1017F000E00707D032463B4640464946FEF7E2FD49
:101800008046894632463B4610461946FEF7DAFDC9
:1018100006460F466410002CEAD1DDE90401DDE93B
:101820000023BAF1000F06DAFEF7CCFD42464B4624
:10183000FEF7C8FD05E0FEF737FE42464B46FEF7D1
:1018400033FE04460E460022284BFEF7CDFE03D899
:101850004FF0FF30014607E00022254B204631467D
:10186000FEF709FDFFF74BF8102409E0002C0ADB16
:101870000A220023FEF7E6FE039B30321A55641E4F
:1018800050EA0102F2D1641C039AC4F1110314441A
:10189000119A012A03D0012208430DD10AE008431E
:1018A00004D000204FF0110B119072E7A3EB0B0551
:1018B0006D1E0DE05B4504DD4FF0000205F10105F2
:1018C00004E003DA4FF00002A5F10105002AECD094
:1018D00002981199C0E90231C0E9004579E700009A
:1018E000000014400000F03F300000000000F04312
:1018F0000000E03F30380A2801D201207047002064
:1019000070470000FEB5002402F114052E1F331F9E
:1019100006290BD0082914D0092912D00A2910D081
:1019200010A001F089F8CCB10020FEBDCDE9006522
:1019300015A202F0D7F9032801D00024F3E701240F
:10194000F1E71832CDE90065029212A202F0CAF95D
:10195000042801D00024E6E70124E4E74FF0FF303B
:10196000FEBD00005061727365206F662074696D62
:1019700065206572726F722028666F726D617420C7
:101980006572726F72292100253264253264253216
:10199000640000002532642532642532642E2564FB
:1019A000000000002DE9FF4F95B09B468946064692
:1019B00000250FE2252877D100242746F84A012187
:1019C000059400E0044316F8013F203B01FA03F0C0
:1019D0001042F7D130782A2811D06FF02F033078D9
:1019E000A0F13002092A16D8059A44F0020402EB4D
:1019F000820203EB42021044761C0590EFE759F88F
:101A0000042B0592002A03DA504244F40054059056
:101A100044F00204761C30782E2816D116F8010FF7
:101A200044F004042A280DD06FF02F023078A0F182
:101A30003003092B09D807EB870302EB4303C718D0
:101A4000761CF3E759F8047B761C30786C280FD0AD
:101A500006DC4C2817D068280DD06A2814D104E081
:101A6000742810D07A280FD10DE044F400140AE055
:101A700044F4801401E044F440147278824202D1AC
:101A800004F58014761C761C307866280BD013DCA5
:101A9000582877D009DC002875D04528F6D046288C
:101AA000F4D047281AD19DE118E0632835D0642886
:101AB00079D0652812D195E1702873D008DC6728A9
:101AC000F1D069286FD06E280DD06F2806D1B5E00F
:101AD00073282CD0752875D0782874D05A46179959
:101AE00090476D1C75E1C4F30250022809D0032809
:101AF0000DD0D9F8001004280DD00D6009F10409AB
:101B000067E1D9F80010EA17C1E90052F6E7D9F801
:101B100000100D80F2E70D70F0E719F8041B8DF846
:101B2000001000208DF80100EA46012003E059F87A
:101B300004AB4FF0FF3061074FF0000102D40DE01D
:101B400008F101018846B9420FDA8045F8DB1AF83E
:101B500008100029F4D108E008F10101884681420B
:101B6000FADB1AF808100029F6D105985B46A0EBBD
:101B7000080721463846179A00F094FA284400EBEB
:101B8000080507E04DE029E10DE01AF8010B5A467F
:101B900017999047B8F10108F7D25B4621463846BD
:101BA000179A13E142E00A220092C4F302524FF066
:101BB000000A022A08D059F804CB032A4FEAEC7134
:101BC0000AD00DE029E02AE009F1070121F007021F
:101BD000F2E802C1914609E00FFA8CFC4FEAEC7181
:101BE000042A03D14FFA8CFC4FEAEC71002907DA82
:101BF0000A460021DCF1000C61EB02012D2202E01B
:101C0000220504D52B228DF80420012203E0E207EF
:101C100001D02022F7E7904659E00A2102E0102285
:101C20000DE010214FF0000A00910BE010224FF060
:101C3000000A44F004040827009203E008224FF051
:101C4000000A0092C4F30252022A05D059F804CBCC
:101C50000021032A08D009E009F1070121F0070259
:101C6000F2E802C1914605E01FFA8CFC042A01D17A
:101C70000CF0FF0C4FF00008220728D5702806D082
:101C8000009B83F0100353EA0A0305D00EE04022C4
:101C90008DF80420012208E05CEA010206D030221F
:101CA0008DF804208DF8050002229046009B83F0F9
:101CB000080353EA0A030AD15CEA010201D1620770
:101CC00005D530228DF804204FF001087F1E5828DA
:101CD00004D034A003900EA802900DE036A0F9E7DE
:101CE00053466046009AFEF7ADFC84460398825C3A
:101CF0000298401E029002705CEA0100F0D1029846
:101D000006A9081A00F1200A600702D524F48034DD
:101D100000E00127574502DDA7EB0A0000E00020A4
:101D200000EB0A01009005984144401A0590E00339
:101D300006D45B462146179A059800F0B3F905448E
:101D4000002706E001A85A46C05D179990476D1C10
:101D50007F1C4745F6DBE0030CD55B462146179A0E
:101D6000059800F09FF9054404E030205A46179981
:101D700090476D1C0099481E00900029F5DC08E092
:101D8000029802995A460078491C02911799904787
:101D90006D1CBAF10001AAF1010AF1DC65E1000055
:101DA0000928010030313233343536373839616231
:101DB00063646566000000003031323334353637F5
:101DC00038394142434445460000000000F058F9CC
:101DD0000544761C307800287FF4ECAD19B0284615
:101DE000BDE8F08F620700D4062709F1070222F050
:101DF000070CFCE80223E14603F000485FEA080C08
:101E000002D00FF2702C0DE05FEA045C02D50FF2F5
:101E1000682C07E05FEAC47C02D00FF2602C01E07E
:101E2000AFF2700C4FF0FF3823F00043CDF850C0F4
:101E300065280CD006DC452809D046281DD0472847
:101E40003DD13DE0662818D067287ED138E00021DA
:101E5000112F01DB112000E0781CCDE9000106A95B
:101E60000EA8FFF785FCDDE90F010E9A0391002112
:101E7000009207F1010A04914DE04FF000400097F5
:101E8000CDE9011006A90EA8FFF772FCDDE90F02EB
:101E900003920E9B11990022DDF80CA0009304928E
:101EA00011B9791C00EB010AB7EB0A0004D4C0F1A8
:101EB000FF3007F1010A0490AAEB0700019044E00B
:101EC000012F00DA01270021112F01DD112000E090
:101ED0003846CDE9000106A90EA8FFF749FCDDE967
:101EE0000F010E9A0391002104910092BA46210736
:101EF0000CD40399514500DA8A46BAF1010F05DD89
:101F0000009AAAF10101515C302908D0B84202DAE6
:101F100010F1040F06DA0121CDE9011015E0AAF154
:101F20000101E9E7002805DC049901440491AAEBCA
:101F3000000102E0411C514500DD8A460499401A27
:101F4000401C01904FF000400290200704D40198FB
:101F5000504501DBCDF8048000208DF84F00029839
:101F60000DF14F07B0F1004F25D02B200E900298B5
:101F70004FF0020800280CDA404202902D200E900B
:101F800007E00A210298FEF747FB3031029007F87C
:101F9000011DB8F10001A8F10108F2DC0298002847
:101FA000EFD1791E0E980870307800F0200040F0D4
:101FB000450007F8020D12A8C01B00F1070814988D
:101FC000007800B1012000EB0A01019801EBE071FB
:101FD00005984144401A401E0590E00306D45B4634
:101FE0002146179A059800F05DF80544149800788A
:101FF00018B15A46179990476D1CE00324D55B46EB
:102000002146179A059800F04DF805441CE0049805
:10201000002807DBDDE90301884203DD0098405C0E
:10202000179901E0179930205A469047049805F116
:102030000105401C04900198401E019004D12E20FF
:102040005A46179990476D1CBAF10001AAF1010A8E
:10205000DDDC05E017F8010B5A46179990476D1C17
:10206000B8F10001A8F10108F4DC5B462146179A9B
:102070000598ABE62D0000002B00000020000000BA
:102080002DE9F041044600251E461746880404D475
:1020900005E039462020B0476D1C641EF9D528465E
:1020A000BDE8F0812DE9F041044600251E4690462A
:1020B000C80301D5302700E02027880404D505E0B7
:1020C00041463846B0476D1C641EF9D52846BDE828
:1020D000F0814A68002A06D00A68531C0B60107011
:1020E0004868401E486070477047000070B504465D
:1020F000064DE1B22846FFF7FBFA80212846FFF79C
:1021000091FA0028F9D0204670BD00000038014047
:1021100010B5002821D0114B0022001F196803E0E0
:10212000814203D80A4649680029F9D152B113689F
:10213000841A9C4204D1006818441060104602E0E2
:10214000506000E0186039B102680B1A934203D165
:102150000B681A4402604968416010BD7400002099
:1021600070B505460E4609A0FFF7C8FA002405E041
:10217000295D09A0FFF7C2FA641CA4B2B442F7DBE0
:10218000BDE8704005A0FFF7B9BA00000D0A496E1E
:10219000666F3A2000000000256300000A0000007E
:1021A000FFF73CF80C4820210160012101600A4939
:1021B0000220091D0860FFF7E9F9FEF764FF07A098
:1021C000FFF79CFA0CA0FFF799FA15A0FFF796FA13
:1021D00000F036FBFEE70000100C01400D0AB1FCD8
:1021E000BBF020475053C4A3BFE9B2E2CAD4C0FD3C
:1021F000B3CC0D0A000000000D0AB1BEB3CCD0F282
:10220000B6D4475053C4A3BFE9B4AEBFDAB4ABBB36
:10221000D8B5C4CAFDBEDDBDE2C2EBA3AC00000070
:10222000CAB5D1E9CAB1C7EBB8F8BFAAB7A2B0E541
:10223000BDD3C8EB475053C4A3BFE9200D0A00002B
:10224000F0B50B30154D20F007010024144A0FE0C3
:1022500003688B420BD38B4205D95E1A431847683B
:10226000C3E9006700E04368136002C004E0021D98
:1022700010680028ECD12046002802D1286808B157
:102280000020F0BD064A07481060074A121A22F0E3
:102290000702C0E9002401202860D7E77800002069
:1022A0007400002084030020801300202DE9F041F9
:1022B0000026383010F8382C4A62D0E91A23C1E9D8
:1022C0000A23D0E91C23C1E90C23D0E91E233838A6
:1022D000C1E90E2300234FF0010C002200EB83071D
:1022E0000DE0BC6854B102EB820501EB8505D5F821
:1022F0007083444502D1C5F874C3761C521CD1F8D2
:102300006C439442EDDC5B1C252BE6DBC1F8686373
:10231000086840F080000860BDE8F08170B5D0E941
:1023200000329A4233DC2523B3EB820F2FDB012AE4
:1023300001DA012242608268C1F86C234268521EB1
:1023400092008368141DA34201DA9D1A00E004255F
:10235000002216E043685B1E02EB830302EB82045B
:1023600003EB830300EB840401EB830303F55C734D
:10237000E6681E6066699E60A669DE60E4691C61AD
:10238000521CAA42E6DB086840F04000086070BDBD
:10239000C2680A6102694A6142698A618269CA61E6
:1023A000C26B0A62D0E91223C1E90C23D0E91423DD
:1023B000C1E9142390F828204E2A16D0D0E908232A
:1023C00083F00043C1E9102390F83820452A0FD04C
:1023D000D0E90C2383F00043C1E91223006CC867E5
:1023E000086840F4805008607047D0E90823E9E7A6
:1023F000D0E90C23F0E790F83820412A02D0562A81
:1024000009D00CE00B6A022203B90A624B6A012B65
:1024100005D14A6203E000220A6201224A62027A7E
:102420004E2A1FD0D0E9002383F00043C1E91023D6
:10243000027E452A19D0D0E9042383F00043C1E984
:102440001223826A0A61C26A4A61026B8A61426B24
:10245000CA6190F8390081F87800086840F400708B
:1024600008607047D0E90023E0E7D0E90423E6E7FD
:1024700070B505460C46287F412802D0562809D061
:102480000CE0216A022001B92062616A012905D1AC
:10249000606203E000202062012060621C22294665
:1024A000201DFDF76EFE95F828004E2828D0D5E9AE
:1024B000080181F00041C4E9100195F83800452871
:1024C00021D0D5E90C0181F00041C4E91201D5E920
:1024D0001001C4E91601D5E910010C4A0C4BFDF7B7
:1024E00071FFC4E91801D5E91201C4E91A0195F890
:1024F000590084F87800206840F40060206070BDC6
:10250000D5E90801D7E7D5E90C01DEE76F1283C0F2
:10251000CAA1FD3FD0E90023C1E91A23D0E9042371
:10252000C1E91C23D0E90823C1E91623D0E90C2313
:10253000C1E9182390F8390081F87800086840F460
:1025400080600860704710B50C4601461C22201DB3
:10255000FDF717FE206840F48070206010BDC2684F
:102560000A6102694A6142698A618269CA61C26B11
:102570000A62D0E91223C1E90C23D0E91423C1E98E
:10258000142390F828204E2A14D0D0E9082383F091
:102590000043C1E9102390F83820452A0DD0D0E936
:1025A0000C2080F00040C1E91220086840F00100D2
:1025B00008607047D0E90823EBE7D0E90C20F2E788
:1025C0002DE9F0410026383050F8342C4A62D0E929
:1025D0001A23C1E90A23D0E91C23C1E90C23D0E95D
:1025E0001E233838C1E90E2300234FF0010C0022CE
:1025F00000EB83070DE0BC6854B102EB820501EBF0
:102600008505D5F88480444502D1C5F888C0761C7C
:10261000521CD1F880409442EDDC5B1C252BE6DB9C
:10262000CE67086840F002000860BDE8F08170B530
:10263000D0E900329A4232DC2523B3EB820F2EDB45
:10264000012A01DA012242608268C1F880204268D2
:10265000521E92008368141DA34201DA9D1A00E005
:102660000425002215E043685B1E02EB830302EBA6
:10267000820400EB840403EB830301EB8303E6682D
:1026800043F8846F66699E60A669DE60E4691C6138
:10269000521CAA42E7DB086840F00400086070BDE5
:1026A00070B505460C46287F412802D0562809D02F
:1026B0000CE0216A022001B92062616A012905D17A
:1026C000606203E000202062012060621C22294633
:1026D000201DFDF756FD95F828004E2820D0D5E99D
:1026E000080181F00041C4E9100195F8380045283F
:1026F00019D0D5E90C0181F00041C4E91201D5E9F6
:1027000010010A4A0A4BFDF75DFEC4E91801D5E93C
:102710001201C4E91A01206840F00800206070BD71
:10272000D5E90801DFE7D5E90C01E6E76F1283C0C0
:10273000CAA1FD3F8068C1F854060E4AC1F8582668
:10274000002809D001280BD002280DD007280FD16E
:10275000114609A000F0CDB906490CA000F0C9B996
:1027600004490EA000F0C5B9024911A000F0C1B99A
:102770007047000080020020475054585420757361
:10278000657220696E666F3A202573004750545871
:1027900054206572726F723A202573004750545866
:1027A00054207761726E696E673A202573000000CD
:1027B0004750545854206E6F746963653A202573EE
:1027C00000000000D0E90023C1E91A23D0E9042366
:1027D000C1E91C23426B006BC1E91802086840F094
:1027E00010000860704710B5C2B003460C460020C8
:1027F0000146FF2C0BDC2246194601A8FDF7C1FC5F
:1028000001A90020085541A901A801F06DFB42B0C3
:1028100010BD30B5C1B003460C4615460020FF2C54
:102820000CDC224619466846FDF7ABFC00200DF88B
:1028300004002A4640A96846FDF7E5FC41B030BDDA
:10284000ADF5D46D002401F049FA3C49016001F076
:1028500045FA3B49416001F041FA3A49816010A8CC
:1028600001F033FB0BA800F0E9FF374FDFF8DC8005
:1028700000264FF48079387840B110AB4A4634498D
:102880000BA800F005FA3E7001240BE098F8000058
:1028900040B110AB4A462F490BA800F0F9F988F86F
:1028A00000600124002CE6D00123082204A911A80D
:1028B000FEF7F2FA07A807C88DE8070004A926A0CA
:1028C0000EC901F26C71FEF719FFDDE9200100F07D
:1028D0002FF904460D46DDE9220100F029F9CDE982
:1028E000000122462B4624A0FEF708FFDDE9242341
:1028F00026A0FEF703FFDDE9282329A0FEF7FEFE50
:10290000DDE92A232BA0FEF7F9FEDDE92F122DA029
:10291000FEF7F4FE35A0EB9AEA99FEF7EFFEDDE94B
:102920001E01CDE90201DDE91C01CDE90001DDE96F
:102930001A2339A0FEF7E2FE00249CE7053F0008B9
:10294000E920000861210008150000201400002083
:1029500080000020800100200D0ACAB1BCE425647B
:102960002D253032642D253032642C25643A2564BF
:102970003A25640D0A0000000D0ACEB3B6C8A3BA0A
:1029800025662CBEADB6C825660D0A000D0ABAA391
:10299000B0CEB8DFB6C8A3BA256620C3D7200000E2
:1029A0000D0ACBD9B6C8A3BA2566206B6D2F682057
:1029B000000000000D0ABABDCFF2A3BA256620B60A
:1029C000C80000000D0AD5FDD4DACAB9D3C3B5C416
:1029D000475053CEC0D0C7A3BA25642CBFC9BCFB97
:1029E000475053CEC0D0C7A3BA2564000D0AD5FD09
:1029F000D4DACAB9D3C3B5C4B1B1B6B7CEC0D0C7A3
:102A0000A3BA25642CBFC9BCFBB1B1B6B7CEC0D048
:102A1000C7A3BA25640000000D0A50444F50A3BA62
:102A200025662C48444F50A3BA2566A3AC56444FA4
:102A300050A3BA25660000000FB410B5ADF5816D46
:102A400001F04CF94468002C10D00DF2144340F210
:102A5000FF3101A8DDF81024FEF760FE01460020DA
:102A6000CDF80404002901DD01A8A0470DF5816D12
:102A700010BC5DF814FB2DE9F04704468846174664
:102A800004EB0806002000254FF0FF39C7F800903E
:102A90000BE02378242B02D108B1002407E02A2B75
:102AA0000DD000B15D40641C401CB442F1D33968C4
:102AB000002902DA002C00D00020BDE8F087611D5B
:102AC000B142F4D8E1780D29F1D121790A29EED16A
:102AD00010220221601CFFF79CFE01463860301B6B
:102AE000A8EB0000401DA942E1D0C7F800900024E7
:102AF000DDE70FB410B5ADF5816D01F0EFF8846836
:102B0000002C10D00DF2144340F2FF3101A8DDF883
:102B10001024FEF703FE01460020CDF8040400292E
:102B200001DD01A8A0470DF5816D10BC5DF814FB17
:102B30002DE9F04104460D46DFF848800022434667
:102B400020462946FDF7B0FCFDF72EFDFDF71BFDE5
:102B500006460F460022434630463946FDF732FC12
:102B600022462B46FDF72BFC0022074BFDF79CFC71
:102B700032463B46FDF77FFB04460D46204629467C
:102B8000BDE8F0810000594000004E4070B5054698
:102B9000052901DA002070BD3C4C05222846216839
:102BA000FDF724FB00284FD0052228466168FDF779
:102BB0001DFB00284AD005222846A168FDF716FB18
:102BC000E8B305222846E168FDF710FBC0B30522F3
:102BD00028462169FDF70AFB98B30522284661695A
:102BE000FDF704FB70B305222846A169FDF7FEFA44
:102BF00048B305222846E169FDF7F8FA80B30522BB
:102C00002846216AFDF7F2FA58B305222846616A80
:102C1000FDF7ECFA68B305222846A16AFDF7E6FA4B
:102C200050B305222846E16AFDF7E0FA38B30522E1
:102C30002846216BFDF7DAFA20B3002070BD07E0CB
:102C400008E009E00AE00DE00120F7E70220F5E7DF
:102C50000420F3E70820F1E71020EFE72020EDE75C
:102C600002E003E04020E9E78020E7E74FF48070CE
:102C7000E4E74FF40070E1E74FF48060DEE74FF4E3
:102C80000060DBE74FF48050D8E700003C000020F4
:102C9000F8B506461D46002400200090304600F09E
:102CA00007FE69E0641C402855D00EDC08282FD0B0
:102CB00006DC01281DD0022820D0042859D122E0AA
:102CC00010282AD0202854D14FE0B0F5806F33D09F
:102CD00008DC802844D0B0F5807F32D0B0F5007F8A
:102CE00047D133E0B0F5006F21D0B0F5805F40D11F
:102CF00018E029460098FFF732FC3AE02946009890
:102D0000FFF75EFC35E029460098FFF790FC30E0C5
:102D100029460098FFF7C4FC2BE029460098FFF7EE
:102D200051FD26E029460098FFF732FB21E02946B5
:102D30000098FFF79DFB1CE029460098FFF7EAFB8F
:102D400017E029460098FFF7FEFB12E0294600989D
:102D5000FFF751FB0DE029460098FFF7DFFA08E086
:102D600029460098FFF7A2FA03E029460098FFF7EA
:102D7000E1FC0098FFF7CCF96946304600F086FD8B
:102D800000288FD12046F8BD70B590B005460E469C
:102D90001446B8212046FDF70DFA3146284601F0C9
:102DA00086F804F1B00004F1A801CDE90E108038D6
:102DB000011F04F1A00204F13403CDE90C320A1F13
:102DC000CDE90A101038011F131FCDE908320A1F80
:102DD000CDE906101038131F011FCDE904320A1F78
:102DE000231DCDE90032CDE90210234607A231466A
:102DF000284600F077FF112805D013A0FFF71CFE2E
:102E0000002010B070BD0120FBE7000024424447C1
:102E100053412C25432C25642C25642C25642C251A
:102E2000642C25642C25642C25642C25642C2564B5
:102E30002C25642C25642C25642C25642C25662CDB
:102E400025662C25662A00004244475341207061C4
:102E5000727365206572726F7221000070B592B056
:102E600005460E4614465C212046FDF7A3F931467F
:102E7000284601F01CF804F15800011F0A1FCDE993
:102E80001010143804F14803011FCDE90E320A1F57
:102E9000CDE90C101438143B011FCDE90A320A1F8A
:102EA000CDE908101438143B011FCDE906320A1F82
:102EB000CDE90410143B1438211DCDE90232CDE9CF
:102EC000001023460E4A3146284600F00BFF616889
:102ED000491E8900A2680B1D9A4201DA511A00E0CE
:102EE0000421032202EB8101884201DB132805DD66
:102EF00004A0FFF7A1FD002012B070BD0120FBE788
:102F00008C3F00084244475356207061727365201D
:102F10006572726F7221000070B5CEB005460E4624
:102F2000144680212046FDF745F93146284600F039
:102F3000BEFF04F1680204F16003CDE9093204F137
:102F4000780004F17001CDE90B10203A203BCDE967
:102F5000053220382039CDE90710183A183BCDE961
:102F600001321C38011FCDE903101C3800900EAB54
:102F70000EA23146284600F0B5FE0E2805D018A056
:102F8000FFF75AFD00204EB070BD0EA8FDF71DF9E9
:102F9000014622460EA8FEF7B5FC20B115A0FFF7AA
:102FA0004BFD0020EFE70120EDE7000024474E47EE
:102FB00047412C25732C25662C25432C25662C2572
:102FC000432C25642C25642C25662C25662C254352
:102FD0002C25662C25432C25662C25642A00000010
:102FE000474E474741207061727365206572726F6A
:102FF00072210000474E4747412074696D6520707B
:1030000061727365206572726F72210070B5C6B00F
:1030100005460E46144640212046FDF7CBF83146C2
:10302000284600F044FF04F13900411ECDE90410A8
:1030300029383039CDE9001006AB04F11802CDE98A
:10304000022323460EA23146284600F04BFE0728F5
:1030500005D013A0FFF7F0FC002046B070BD06A815
:10306000FDF7B3F8014604F11C0206A8FEF74AFC7E
:1030700020B110A0FFF7E0FC0020EEE70120ECE714
:1030800024474E474C4C2C25662C25432C25662C7A
:1030900025432C25732C25432C25432A00000000B2
:1030A000474E474C4C207061727365206572726F99
:1030B00072210000474E474C4C2074696D652070AA
:1030C00061727365206572726F72210070B5CEB047
:1030D00005460E46144660212046FDF76BF8314642
:1030E000284600F0E4FE04F15002CDE9094204F163
:1030F0005900411ECDE90B10083A04F14003CDE917
:103100000532201D011DCDE90710203A203BCDE9F5
:10311000013234302831CDE903101C3800900EAB59
:1031200010A23146284600F0DDFD0D2807D00E28FC
:1031300005D019A0FFF780FC00204EB070BD0EA88E
:10314000FDF743F8014622460EA8FEF7DBFB20B14F
:1031500016A0FFF771FC0020EFE7206864302060C4
:103160000120EAE724474E524D432C25732C25437A
:103170002C25662C25432C25662C25432C25662CD6
:1031800025662C2532642532642532642C25662C74
:1031900025432C25432A0000474E524D43207061A1
:1031A000727365206572726F72210000474E524D36
:1031B000432074696D652070617273652065727259
:1031C0006F72210070B588B005460E461446402146
:1031D0002046FCF7EFFF3146284600F068FE04F178
:1031E0003900411ECDE9061004F1300204F1280334
:1031F000CDE9043219382039203A203BCDE900329C
:10320000CDE90210234611A23146284600F06AFD9E
:10321000092805D016A0FFF70FFC002008B070BDEC
:10322000207A54280AD1207E4D2807D194F828000E
:103230004E2803D194F838004B2804D011A0FFF792
:10324000FBFB0020EAE70120E8E7000024474E5698
:1032500054472C25662C25432C25662C25432C25EC
:10326000662C25432C25662C25432C25432A00005B
:10327000474E565447207061727365206572726FB5
:1032800072210000474E56544720706172736520CA
:103290006572726F722028666F726D61742065723C
:1032A000726F72292100000070B5C8B005460E4645
:1032B00014461C212046FCF77DFF3146284600F0CD
:1032C000F6FD46A947AB201DCDE90231019045AA84
:1032D000001D0492009005AB10A23146284600F074
:1032E00001FD4799A1F26C712160062805D013A059
:1032F000FFF7A2FB002048B070BD05A8FCF765FFF2
:103300000146224605A8FEF7FDFA20B110A0FFF7FE
:1033100093FB0020EFE70120EDE7000024474E5A21
:1033200044412C25732C2532642C2532642C253401
:10333000642C2532642C2532642A0000474E5A44FE
:1033400041207061727365206572726F7221000096
:10335000474E5A44412074696D65207061727365EF
:10336000206572726F72210070B5CEB005460E46B0
:10337000144680212046FCF71DFF3146284600F008
:1033800096FD04F1680204F16003CDE9093204F10D
:10339000780004F17001CDE90B10203A203BCDE913
:1033A000053220382039CDE90710183A183BCDE90D
:1033B00001321C38011FCDE903101C3800900EAB00
:1033C0000EA23146284600F08DFC0E2805D018A02C
:1033D000FFF732FB00204EB070BD0EA8FCF7F5FEE3
:1033E000014622460EA8FEF78DFA20B115A0FFF780
:1033F00023FB0020EFE70120EDE7000024475047C2
:1034000047412C25732C25662C25432C25662C251D
:10341000432C25642C25642C25662C25662C2543FD
:103420002C25662C25432C25662C25642A000000BB
:103430004750474741207061727365206572726F13
:103440007221000047504747412074696D65207024
:1034500061727365206572726F72210070B590B0F1
:1034600005460E461446B8212046FCF7A3FE314619
:10347000284600F01CFD04F1B00004F1A801CDE9DC
:103480000E108038011F04F1A00204F13403CDE9CD
:103490000C320A1FCDE90A101038011F131FCDE9A5
:1034A00008320A1FCDE906101038131F011FCDE99D
:1034B00004320A1F231DCDE90032CDE90210234654
:1034C00007A23146284600F00DFC112805D013A0B4
:1034D000FFF7B2FA002010B070BD0120FBE700003A
:1034E0002447504753412C25432C25642C25642C1C
:1034F00025642C25642C25642C25642C25642C251E
:10350000642C25642C25642C25642C25642C2564CE
:103510002C25662C25662C25662A0000475047532B
:1035200041207061727365206572726F72210000B4
:1035300070B592B005460E4614465C212046FCF755
:1035400039FE3146284600F0B2FC04F15800011F54
:103550000A1FCDE91010143804F14803011FCDE90A
:103560000E320A1FCDE90C101438143B011FCDE9AF
:103570000A320A1FCDE908101438143B011FCDE9A7
:1035800006320A1FCDE90410143B1438211DCDE981
:103590000232CDE9001023460E4A3146284600F09B
:1035A000A1FB6168491E8900A2680B1D9A4201DADD
:1035B000511A00E00421032202EB8101884201DB61
:1035C000132805DD04A0FFF737FA002012B070BD04
:1035D0000120FBE7D03F0008475047535620706159
:1035E000727365206572726F7221000070B5CEB083
:1035F00005460E46144660212046FCF7DBFD3146A9
:10360000284600F054FC04F15002CDE9094204F1CF
:103610005900411ECDE90B10083A04F14003CDE9F1
:103620000532201D011DCDE90710203A203BCDE9D0
:10363000013234302831CDE903101C3800900EAB34
:1036400010A23146284600F04DFB0D2807D00E2869
:1036500005D019A0FFF7F0F900204EB070BD0EA8FC
:10366000FCF7B3FD014622460EA8FEF74BF920B148
:1036700016A0FFF7E1F90020EFE720686430206032
:103680000120EAE7244750524D432C25732C254353
:103690002C25662C25432C25662C25432C25662CB1
:1036A00025662C2532642532642532642C25662C4F
:1036B00025432C25432A00004750524D432070617A
:1036C000727365206572726F722100004750524D0F
:1036D000432074696D652070617273652065727234
:1036E0006F722100FEB505460E4614460022226088
:1036F0006260A2603146284600F0D9FB0A4904F115
:103700000802CDE90121201D0090234607A2314681
:10371000284600F0E7FA042804D00AA0FFF78CF945
:103720000020FEBD0120FEBD800200202447505431
:1037300058542C2532642C2532642C2532642C25D7
:10374000732A0000475054585420706172736520EA
:103750006572726F7221000070B588B005460E4622
:10376000144640212046FCF725FD3146284600F04E
:103770009EFB04F1280204F12003CDE9033204F199
:10378000380004F13001CDE905102039203ACDE9A7
:10379000002120380290234610A23146284600F02E
:1037A000A1FA082805D015A0FFF746F9002008B0B7
:1037B00070BD207A54280AD1207E4D2807D194F874
:1037C00028004E2803D194F838004B2804D010A0CC
:1037D000FFF732F90020EAE70120E8E724475056D6
:1037E00054472C25662C25432C25662C25432C2557
:1037F000662C25432C25662C25432A004750565419
:1038000047207061727365206572726F72210000CB
:103810004750565447207061727365206572726F0D
:10382000722028666F726D6174206572726F7229E2
:1038300021000000002101610120704770B505469C
:10384000002600F04BFAC468FF2C01DC4FF48074B2
:1038500014212846FCF7AEFC2046FEF7F1FCA860D8
:1038600018B1EC600126304670BD02A0FFF7E4F805
:10387000F9E70000496E73756666696369656E7481
:10388000206D656D6F7279210000000010B5024651
:1038900000241068002809D043680B600468816820
:1038A000116009B900215160FEF732FC204610BDBD
:1038B0002DE9F0410746884614460026FD68A542DA
:1038C00000DB25462A464146384600F007F8064404
:1038D000641B002CF2D13046BDE8F0812DE9F84F91
:1038E00005460B46144600262869E96820448842AC
:1038F00002DB2846FFF79EFF2969A8682246084494
:103900001946FCF73EFC2869204428614FF4805A90
:10391000002728696A46811BA8683044FFF7ABF886
:1039200080465FEA080023D0009800287EDB2869E3
:10393000AA68811B701C491E1044FFF727F98346B3
:103940000C20FEF77DFC041E71D06760BBF1400FB8
:103950006ED01FDCBBF1080F6BD014DCBBF1010F84
:1039600052D0BBF1020F71D0BBF1040F6DD18CE0CE
:1039700036B12869821B2A61A8688119FCF701FC0D
:103980003046BDE8F88FBBF1100F7AD0BBF1200FA5
:10399000ECD163E14FF48069CB4573D01CDCBBF103
:1039A000800F70D04FF48079CB456DD04FF4007903
:1039B000CB45DBD14020FEF743FC60600028C3D03C
:1039C000C4F80090A96802468B1941461846FFF7D3
:1039D0001DFB002874D05EE14FF40069CB4570D028
:1039E000D345C3D18020FEF72BFC60600028ABD00C
:1039F000C4F800A0A96802468B1941461846FFF793
:103A00008BFA002879D046E18020FEF719FC60602F
:103A1000002899D001212160A96802468B194146EE
:103A20001846FFF7A1FC0028D5D103E03CE1FBE0FC
:103A3000E1E047E0606810B1FEF76AFB676020468E
:103A4000FEF766FB002426E100E020E1B820FEF747
:103A5000F7FB60600028B2D002212160A96802460D
:103A60008B1941461846FFF7F9FC0028B3D160686E
:103A700010B1FEF74DFB67602046FEF749FB0024BE
:103A800009E13BE07AE0D0E092E05C20FEF7D8FB71
:103A90006060002893D004212160A96802468B1938
:103AA00041461846FFF744FD002894D1606810B1E4
:103AB000FEF72EFB67602046FEF72AFB0024EAE0B3
:103AC0008FE040E06020FEF7BBFB606000288ED0F6
:103AD00008212160A96802468B1941461846FFF764
:103AE00085FD00288FD1606810B1FEF711FB67607B
:103AF0002046FEF70DFB0024CDE01AE04020FEF743
:103B00009FFB6060002884D010212160A9680246D4
:103B10008B1941461846FFF71FFE002808D1606840
:103B200010B1FEF7F5FA67602046FEF7F1FA0024BF
:103B3000B1E0606810B1FEF7EBFA67602046FEF76F
:103B4000E7FA0024A7E06020FEF77AFB6060002817
:103B50006AD0C4F80090A96802468B1941461846FD
:103B6000FFF7B4FA002808D1606810B1FEF7D0FA68
:103B700067602046FEF7CCFA00248CE04020FEF778
:103B80005FFB606000284FD0C4F80090A96802462F
:103B90008B1941461846FFF715FB08BB606810B14A
:103BA000FEF7B6FA67602046FEF7B2FA002472E02C
:103BB0001C20FEF745FB6060B0B3C4F80090A96814
:103BC00002468B1941461846FFF76EFB40B9606804
:103BD00010B1FEF79DFA67602046FEF799FA0024BF
:103BE00059E0606810B1FEF793FA67602046FEF76F
:103BF0008FFA00244FE05C20FEF722FB606098B152
:103C000040212160A96802468B1941461846FFF7FA
:103C100025F910BB606810B1FEF77AFA676020469C
:103C2000FEF776FA002436E040E0B820FEF708FB05
:103C30006060D8B380212160A96802468B19414693
:103C40001846FFF7A1F840B9606810B1FEF760FAB6
:103C500067602046FEF75CFA00241CE00C20FEF7AB
:103C6000EFFA606010B320212160A96802468B1929
:103C700041461846FFF736FD68B9606810B1FEF797
:103C800047FA67602046FEF743FA002403E0204627
:103C9000FEF73EFA00243CB1686800B184606C60B5
:103CA000286800B92C60A760464432E6FFE714B1EB
:103CB0002046FEF72DFA03A0FEF7BEFE4FF0FF30C0
:103CC0005FE60000496E73756666696369656E74C8
:103CD000206D656D6F72792100000000004870470B
:103CE0002C0000200FB42DE9F84F044667184FF060
:103CF00001080025A946AB460DA80090BEE0B8F12A
:103D0000010F09D0B8F1020F11D0B8F1030F12D092
:103D1000B8F1040F07D11EE0BAF1250F04D014F852
:103D2000010B504528D1A6E04FF00208A3E0002582
:103D3000B1464FF00308FCF717FA006810F80A00C4
:103D4000202877D04E4506D9A6EB09010A2248461D
:103D5000FEF75FFD0546A24655B90C980178632928
:103D600001D0432904D121784078814200D0012537
:103D70001DB12C44BC420AD989E00C98417829B184
:103D80003A1B2046FCF728FA041E00D13C46BC42F0
:103D90007DD84FF001080BF1010B0026A4EB0A05BA
:103DA0000C980078632812D008DC43280FD04528EF
:103DB00023D0472821D053282AD111E065281CD0D0
:103DC00066281AD0672818D0732821D108E00098F7
:103DD00040C80090E5B1DEB19AF80000307017E0FD
:103DE000009840C800909DB196B12A465146304691
:103DF000FCF7C7F9002070550AE0009840C8009011
:103E000035B12EB129465046FEF7EDFCC6E900015A
:103E100086B9009840C8009066B15DB10C980078F2
:103E20006F2822D007DC582818D0642808D06928C9
:103E30002DD105E01FE0752809D0782827D10DE0A5
:103E40000A2229465046FEF7E4FC306013E00A22BD
:103E500029465046FEF7DDFC30600CE01022294672
:103E60005046FEF7D6FC306005E008222946504651
:103E7000FEF7CFFC30600C98401C0C900C9E96F81E
:103E800000A0BAF1000F02D0BC42FFF438AF584690
:103E9000BDE8F80F5DF814FB72210160002141605C
:103EA00001228260C160016141618161704710B58A
:103EB0000346FFF713FF0268002A05D0002903D04C
:103EC000BDE810401846104710BD10B504464FF429
:103ED000CC612046FCF76EF9201DFFF7DDFF0020C6
:103EE00020620120606210BD00B583B00A46002147
:103EF000CDE9001101466846FCF771FCDDE90001DF
:103F000003B000BD7047004040404040404040404A
:103F1000414141414140404040404040404040409C
:103F200040404040404040050202020202020202BC
:103F30000202020202020220202020202020202053
:103F400020020202020202029090909090901010C3
:103F50001010101010101010101010101010101061
:103F600010100202020202028888888888880808E5
:103F700008080808080808080808080808080808C1
:103F80000808020202024000073F0008244244479A
:103F900053562C25642C25642C25642C25642C2553
:103FA000642C25642C25642C25642C25642C256424
:103FB0002C25642C25642C25642C25642C25642C4C
:103FC00025642C25642C25642C25642A000000001F
:103FD0002447504753562C25642C25642C25642CEB
:103FE00025642C25642C25642C25642C25642C2523
:103FF000642C25642C25642C25642C25642C2564D4
:104000002C25642C25642C25642C25642C25642AFD
:1040100000000000474E5A4441000000474E474709
:1040200041000000475047474100000042444753C9
:10403000410000004750475341000000474E524D99
:10404000430000004750524D43000000474E565475
:10405000470000004750565447000000474E474C69
:104060004C0000004750545854000000424447534D
:104070005600000047504753560000009C4000087F
:104080000000002080000000501700081C410008BC
:10409000800000200053000060170008020406089A
:1040A00000000000010203040102030406070809DE
:1040B00000000000000100000000000000000000FF
:1040C00000000000000000000000000000000000F0
:1040D00000000000000400002440000834400008F4
:1040E0007440000844400008544000086440000840
:1040F0006C4000082C400008144000085C40000898
:104100004C4000083C4000081C4000080000000033
:0C411000000000000000000000000000A3
:0400000508000131BD
:00000001FF
