:020000040800F2
:10000000A8040020450100086510000867100008DA
:100010006B1000086F10000873100008000000004B
:100020000000000000000000000000007710000841
:1000300079100008000000007B1000087D10000807
:100040005F0100085F0100085F0100085F01000810
:100050005F0100085F0100085F0100085F01000800
:100060005F0100085F0100087F1000085F010008C1
:100070005F0100085F0100085F0100085F010008E0
:100080005F0100085F0100085F0100085F010008D0
:100090005F0100085F0100085F0100085F010008C0
:1000A0005F0100085F0100085F0100085F010008B0
:1000B0005F0100085F0100085F0100085F010008A0
:1000C0005F0100085F0100085F0100085F01000890
:1000D0005F0100085F0100089D1000085F01000833
:1000E0005F0100085F0100085F0100085F01000870
:1000F0005F0100085F0100085F0100085F01000860
:100100005F0100085F0100085F0100085F0100084F
:100110005F0100085F0100085F0100085F0100083F
:100120005F0100085F0100085F0100085F0100082F
:10013000DFF80CD002F04AFC0048004749100008E4
:10014000A80400200648804706480047FEE7FEE76F
:10015000FEE7FEE7FEE7FEE7FEE7FEE7FEE7FEE777
:1001600047020008310100080CB500200190009002
:100170006C48006840F480306A49086000BF6948F4
:10018000006800F4003000900198401C0190009835
:1001900018B90198B0F5A06FF1D16248006800F479
:1001A000003010B10120009001E000200090009884
:1001B000012843D15C48006840F010005A490860AB
:1001C0000846006820F0030008600846006840F018
:1001D0000200086053484068524948600846406839
:1001E00048600846406840F48060486008464068BF
:1001F00020F47C1048600846406840F4E8104860ED
:100200000846006840F08070086000BF45480068FC
:1002100000F000700028F9D04248406820F0030048
:10022000404948600846406840F00200486000BF0E
:100230003C48406800F00C000828F9D10CBD10B50E
:10024000FFF792FF10BD10B53648006840F001007E
:1002500034490860084640683449084031494860DC
:1002600008460068324908402E4908600846006880
:1002700020F4802008600846406820F4FE004860B2
:100280004FF41F008860FFF7DAFF4FF00060294944
:10029000086010BD10B5002100200022214B5B68D2
:1002A00003F00C0121B1042906D0082928D107E068
:1002B000214B224C236027E01F4B204C236023E07E
:1002C000184B5B6803F47010164B5B6803F48032C4
:1002D000022303EB904022B9194B4343174C236090
:1002E0000DE0104B5B6803F4003323B1144B434320
:1002F000124C236003E0104B4343104C236003E097
:100300000D4B0E4C236000BF00BF064B5B68C3F370
:1003100003130C4CE15C094B1B68CB40074C23607A
:1003200010BD000000100240002002400000FFF855
:10033000FFFFF6FE08ED00E000127A00000000204A
:1003400000093D000400002031490143314A116099
:10035000704770B5002100230F22C47804B32D4CE0
:10036000246804F4E064C4F5E064210AC1F10403E4
:10037000CA40447804FA03F1847814402143090107
:10038000254C0678A155047804F01F050124AC40E3
:1003900005786D11AD0005F1E025C5F8004109E0D3
:1003A000047804F01F050124AC401C4D067876113A
:1003B00045F8264070BD1A4A0A400243154B1B1FE0
:1003C0001A60704739B1134A121D12680243114B6B
:1003D0001B1D1A6006E00F4A121D126882430D4B66
:1003E0001B1D1A607047042808D14FF0E0210969ED
:1003F00041F004014FF0E022116107E04FF0E021ED
:10040000096921F004014FF0E022116170470000FA
:100410000000FA050CED00E000E400E080E100E0FF
:1004200080FFFF1F002044490860091D0860091D66
:100430000860091D086041483F4914310860704751
:1004400000213D498279002A3AD00A4612680368A1
:100450009A430B461A600A1D126803689A430B1DE3
:100460001A60027911440A6803681A430A60324A22
:100470000832126803689A432F4B08331A601A1D1A
:10048000126803689A432C4B0C331A604279102A85
:100490000ED11A1F126803681A43274B08331A60DB
:1004A0001A1D126803681A43234B0C331A600DE0BF
:1004B0002149427911440A6803681A430A6005E039
:1004C000027911440A6803689A430A607047002160
:1004D000016001710C214171002181717047164941
:1004E000103109680143144A103211607047014607
:1004F0000020114A143212680A400AB1012000E0BB
:10050000002070470C4914310860704701460020F4
:100510000022094B1B6803EA0102074B14331B68D6
:100520000B4013B10AB1012000E0002070470249DE
:10053000143108607047000000040140FFFF0F0005
:1005400010B50446CC48844208D10121042000F0B3
:100550002DFB0021042000F029FB46E0C74884421F
:1005600008D10121082000F021FB0021082000F023
:100570001DFB3AE0C248844208D10121102000F05E
:1005800015FB0021102000F011FB2EE0BD48844235
:1005900008D10121202000F009FB0021202000F0DB
:1005A00005FB22E0B848844208D10121402000F038
:1005B000FDFA0021402000F0F9FA16E0B348844229
:1005C00008D10121802000F0F1FA0021802000F004
:1005D000EDFA0AE0AE48844207D10121801500F00F
:1005E000E5FA0021A01500F0E1FA10BD10B50121D7
:1005F000084600F0DBFA0021012000F0D7FA10BD18
:100600002DE9F041024600250026002000230024A9
:10061000002791F803C00CF00F0591F803C00CF00F
:10062000100CBCF1000F03D091F802C04CEA050594
:1006300091F800C0BCF1000F31D0146800202BE00D
:100640004FF0010C0CFA00F3B1F800C00CEA0306FD
:100650009E4220D183004FF00F0C0CFA03F7BC43ED
:1006600005FA03FC4CEA040491F803C0BCF1280F1E
:1006700006D14FF0010C0CFA00FCC2F814C00AE0DD
:1006800091F803C0BCF1480F05D14FF0010C0CFAF2
:1006900000FCC2F810C0401C0828D1D31460B1F887
:1006A00000C0BCF1FF0F34DD546800202EE000F1E3
:1006B000080C4FF0010808FA0CF3B1F800C00CEA7E
:1006C00003069E4221D183004FF00F0C0CFA03F772
:1006D000BC4305FA03FC4CEA040491F803C0BCF1E6
:1006E000280F05D100F1080C08FA0CF8C2F81480A4
:1006F00091F803C0BCF1480F07D100F1080C4FF08E
:10070000010808FA0CF8C2F81080401C0828CED363
:100710005460BDE8F0814FF6FF71018002218170C5
:100720000421C17070470246002093680B400BB152
:10073000012000E0002070470146886880B27047C1
:1007400002460020D3680B400BB1012000E00020DE
:1007500070470146C86880B27047016170474161C7
:1007600070470AB1016100E041617047C1607047A4
:100770004FF480320A4382618161826182698269B9
:10078000704702460020434B18684FF680731840AC
:1007900040EA021008433F4B186070473E49C86169
:1007A0007047F0B50A46002300240021002500F020
:1007B0000046B6F1004F02D1364EF16901E0354EE8
:1007C0007168C0F3034583B200F44016B6F5401FCC
:1007D00008D121F070612F4E766826F070662D4F9B
:1007E0007E6012E000F48016B6F5801F06D1032665
:1007F00006FA05F4A14341F0706106E0460D3601AA
:1008000003FA06F6B14341F0706122B1460D36019C
:1008100003FA06F6314300F00046B6F1004F02D16C
:100820001C4EF16101E01B4E7160F0BD30B500223D
:100830008B071C0F0F2303FA04F2164B08338C109E
:1008400053F824309343134C08348D1044F825306A
:1008500023468C1053F824308C07240F00FA04F43C
:1008600023430C4C08348D1044F8253030BD0A4920
:10087000DC3108607047000000080140000C0140B6
:10088000001001400014014000180140001C01400C
:10089000002001400000014000002042DF480068C5
:1008A00040F00100DD49086008464068DC49084026
:1008B000DA49486008460068DA490840D7490860C4
:1008C0000846006820F4802008600846406820F44C
:1008D000FE0048604FF41F0088607047CF490968E8
:1008E00021F48031CD4A11601146096821F480213C
:1008F0001160B0F5803F03D0B0F5802F0ED106E037
:10090000C649096841F48031C44A116007E0C3490F
:10091000096841F4A021C14A116000E000BF00BF96
:10092000704710B501460022002300204A11012A19
:1009300002D1BA4C236806E0022A02D1B74C236ADE
:1009400001E0B64C636A01F01F02012494401C4090
:100950000CB1012000E0002010BD38B5002000904F
:100960000024002500BF3120FFF7DBFF054600987B
:10097000401C00900098B0F5A06F01D0002DF2D07F
:100980003120FFF7CEFF08B1012400E0002420460B
:1009900038BD01460020A14A106820F0F80040EA66
:1009A000C10010607047A0490860704702460020EF
:1009B0009A4B586820F47C1042EA01031843974B85
:1009C0005860704798490866704701460020934A6E
:1009D000506820F003000843506070478F4840681B
:1009E00000F00C007047014600208C4A506820F04F
:1009F000F00008435060704701460020874A506865
:100A000020F4E06008435060704701460020834AAC
:100A1000506820F4605040EAC1005060704729B12E
:100A20007E4A527A02437D4B5A7204E07B4A527AE4
:100A300082437A4B5A7270477B49D83108607047BD
:100A400001460020754A506820F440400843506039
:100A500070470021714A20321170704A82F82010CC
:100A6000012802D004280AD104E001216B4A203277
:100A7000117005E00521694A2032117000E000BFC5
:100A800000BF70476949086070476449096A0143BB
:100A9000624A11627047654944390860704730B551
:100AA00000210022002400235C4D6D6805F00C013C
:100AB00021B1042905D0082923D105E05C4D05604A
:100AC00022E05B4D05601FE0544D6D6805F4701227
:100AD000524D6D6805F48034022505EB92421CB935
:100AE000544D554305600BE04C4D6D6805F40035E1
:100AF0001DB1504D5543056002E04D4D5543056015
:100B000002E04B4D056000BF00BF444D6D6805F02D
:100B1000F0010909484D6B5C0568DD4045603F4DBB
:100B20006D6805F4E061090A434D6B5C4568DD4082
:100B300085603A4D6D6805F46051C90A3E4D6B5CA5
:100B40004568DD40C560354D6D6805F44041890B51
:100B50003A4D6B5CC568B5FBF3F5056130BD29B155
:100B60002E4A526902432D4B5A6104E02B4A5269C6
:100B700082432A4B5A61704729B1284A926902433D
:100B8000264B9A6104E0254A92698243234B9A617D
:100B9000704729B1214AD2690243204BDA6104E04F
:100BA0001E4AD26982431D4BDA61704729B11B4A44
:100BB000D2680243194BDA6004E0184AD2688243D3
:100BC000164BDA60704729B1144A12690243134B7D
:100BD0001A6104E0114A12698243104B1A6170478E
:100BE00012494039086070470F49C86470470B4983
:100BF000C87170470948406A40F0807007494862F0
:100C0000704701460020054A92680A400AB1012057
:100C100000E00020704701498872704700100240D0
:100C20000000FFF8FFFFF6FE00004242800442424F
:100C300000127A0000093D0014000020240000206A
:100C400010B50446FB48844209D101218803FFF70F
:100C5000ADFF00214FF48040FFF7A8FF32E0F648D7
:100C6000844209D101214804FFF7ADFF00214FF470
:100C70000030FFF7A8FF25E0F048844209D10121A8
:100C80008804FFF7A0FF00214FF48020FFF79BFFAF
:100C900018E0EB48844209D10121C804FFF793FF13
:100CA00000214FF40020FFF78EFF0BE0E54884425F
:100CB00008D101210805FFF786FF00214FF48010BD
:100CC000FFF781FF10BD2DE9F04786B005460E46BF
:100CD0000024A24600BFA1460027B08900B100BF92
:100CE0002F462C8A4CF6FF700440F08804432C8277
:100CF000AC894EF6F3100440B088318908437189FD
:100D000008430443AC81AC8A4FF6FF400440B089ED
:100D10000443AC8201A8FFF7C2FEC648874202D155
:100D2000DDF810A001E0DDF80CA0A88900F4004077
:100D300040B10AEBCA0000EB0A1031684900B0FB71
:100D4000F1F807E00AEBCA0000EB0A1031688900ED
:100D5000B0FBF1F86420B8FBF0F004012009642135
:100D600001FB1089A88900F4004040B1322000EB5B
:100D7000C900B0FBF1F000F00700044308E03220A6
:100D800000EB09106421B0FBF1F000F00F00044308
:100D90002C8106B0BDE8F0874FF4165101600021A8
:100DA0008180C18001810C214181002181817047B6
:100DB00010B502460020108A4FF2FF0318400B883E
:100DC0004C8823438C882343CC88234318431082C8
:100DD00010BD0021018041808180C180704721B118
:100DE000828942F40052828104E082894DF6FF73C9
:100DF0001A4082817047F0B5034600240026002582
:100E0000002040F66A17B94200D100BF1846C1F36E
:100E1000421401F01F06012707FA06F5012C01D143
:100E20000C3004E0022C01D1103000E014301AB173
:100E300007682F43076002E00768AF430760F0BD13
:100E40001AB1838A0B43838202E0838A8B438382B5
:100E50007047028A4FF6F0731A400282028A0A43F0
:100E60000282704782894FF2FF731A408281828921
:100E70000A438281704721B1828942F00202828155
:100E800004E082894FF6FD731A4082817047028A1E
:100E90004FF6DF731A400282028A0A4302827047C9
:100EA00021B1028A42F48042028204E0028A4BF6B7
:100EB000FF731A4002827047C1F3080282807047B4
:100EC00001468888C0F308007047818941F001011C
:100ED00081817047028BD2B20283028B42EA0122E7
:100EE00002837047028B02F47F420283028B0A4323
:100EF0000283704721B1828A42F02002828204E09C
:100F0000828A4FF6DF731A408282704721B1828A4B
:100F100042F01002828204E0828A4FF6EF731A4098
:100F20008282704721B1828A42F00802828204E004
:100F3000828A4FF6F7731A408282704721B1828904
:100F400042F40042828103E08289C2F30E02828170
:100F5000704721B1828A42F40062828204E0828A70
:100F60004FF2FF731A4082827047828A4FF6FB73FA
:100F70001A408282828A0A438282704721B1828A21
:100F800042F00202828204E0828A4FF6FD731A4028
:100F90008282704702460020B1F5007F00D100BF79
:100FA00013880B400BB1012000E00020704701F4D2
:100FB0000072B2F5007F00D100BFCA4302807047C3
:100FC00070B50246002400230025002040F66A1672
:100FD000B14200D100BFC1F3421501F01F03012649
:100FE00006FA03F3012D02D19689334006E0022D63
:100FF00002D1168A334001E0968A33400C12012652
:1010000006FA04F41688344013B10CB1012000E054
:10101000002070BD10B50022002340F66A14A142E2
:1010200000D100BF0A1201249440A3B2DC43048023
:1010300010BD00000038014000440040004800405E
:10104000004C00400050004000F06FF801F0F6FA4C
:1010500000F0A3F900F035FE00F053FD01E000F0D0
:1010600021FDFCE7704700BFFEE700BFFEE700BFC1
:10107000FEE700BFFEE7704770477047704710B546
:101080001020FFF743FA40B11B48006880F02000B1
:10109000194908601020FFF74AFA10BD70B540F2F8
:1010A00025511648FFF78CFFB0B11448FFF708FF31
:1010B000C5B2134800F01EF9044664B1A188206847
:1010C0004554A088401C80B2A0801E2804DB0C4838
:1010D00000F02AF900E070BD40F224410748FFF714
:1010E0006FFF012806D1064800F01EF90348FFF7FC
:1010F000E7FEC5B200BFEEE70C0C01400044004023
:101100004C00002008B54FF4A060FFF71DF9252022
:101110008DF8000001208DF801008DF802008DF897
:1011200003006846FFF715F908BD00B585B0012139
:101130000420FFF721FD01218803FFF71DFD4FF477
:101140000070ADF8100018208DF8130003208DF802
:10115000120004A95548FFF753FA4FF48060ADF828
:10116000100004208DF8130004A95048FFF748FA36
:101170004FF4E13000900020ADF80400ADF8060017
:10118000ADF80800ADF80C000C20ADF80A00694677
:101190004748FFF798FDFFF7B5FF012240F22551C0
:1011A0004348FFF728FE012240F224414048FFF760
:1011B00022FE01213E48FFF712FE05B000BD70B5CA
:1011C00004460D4629462046FFF776FE00BF8021E3
:1011D0002046FFF7DFFE0028F9D070BD2DE9F04171
:1011E00007460D461646002405E0295D3846FFF700
:1011F000E6FF601CC4B2B442F7DB00BF40213846B2
:10120000FFF7C8FE0028F9D0BDE8F08170B50646AA
:101210000C46002500BF615D3046FFF7D0FF6D1C16
:10122000605D0028F7D100BF40213046FFF7B2FED5
:101230000028F9D070BD2DE9F04105460C46260A7C
:10124000E7B231462846FFF737FE00BF8021284627
:10125000FFF7A0FE0028F9D039462846FFF72CFEFC
:1012600000BF80212846FFF795FE0028F9D0BDE891
:10127000F08170B504460D46E1B20D48FFF71CFE43
:1012800000BF80210A48FFF785FE0028F9D02046DC
:1012900070BD10B5044600BF20210548FFF77AFE57
:1012A0000028F9D00248FFF70BFE10BD00080140EE
:1012B00000380140016000224260826070470146B0
:1012C000D1E9002050408A68904201D10120704746
:1012D0000020FCE70146D1E90120904201D1012024
:1012E00070470020FCE7024610684000401E4B1C7F
:1012F0001840704710B504462046FFF7E0FF08B1DC
:10130000002010BD2169A068884204D12046A16850
:10131000FFF7E9FF20612168491E2069084004F1B8
:10132000140151F82000ECE701698160704710B5A5
:1013300004462046FFF7CEFF08B1002010BDE1684B
:101340006068884204D120466168FFF7CCFFE06006
:101350002168491EE068084004F1140151F820009A
:10136000ECE700230268521EC168114000F114022C
:1013700052F821108B80C16841607047002000BF87
:1013800008E03A4951F8301019B10021374A42F8C3
:101390003010401C0228F4D3704710B500243348A5
:1013A0000021016041608160C16002213048FFF787
:1013B00081FF00BF17E0C4EB04102E4901EB400091
:1013C0002A4941F83400084600EBC401284814308B
:1013D00040F8241000BF00BF244951F834001E21FA
:1013E00001F0E9F9641C022CE5D300BF00BF00BF87
:1013F00000BF10BD2DE9F04106460F46002517E05D
:101400001B48FFF777FF044654B1705D21684855CB
:10141000A088401CA080A18817A001F0E3FC01E097
:10142000BDE8F08100BF00BF00BF00BF681CC5B2AF
:10143000BD42E5DB0E48FFF777FF00BF00BF00BFEE
:1014400000BF00BFECE710B50948FFF770FF044686
:101450005CB10020A2882168885400BF00BF00BF93
:10146000206800BF0248FFF77CFF10BD3C00002051
:101470004C000020680000200D0A646174615F70F8
:101480002D3E6C656E203D256400000010B572484D
:1014900001F0A8FC71A001F0A5FC7CA001F0A2FC69
:1014A00087A001F09FFC93A001F09CFCA0A001F09C
:1014B00099FC10BD10B5ABA001F094FC00F062FEE9
:1014C00004461CB9AFA001F08DFC02E0204600F0FC
:1014D00075FE10BD70B5B6A001F084FC00BFBD481C
:1014E00001F080FC00F062FD0446B4F5957FF6D86B
:1014F000A0B2012100F0DEFD05461DB9B6A001F045
:1015000071FC02E0284600F059FE70BD38B500209D
:101510000090BEA001F066FC00F09AFC0446DCB925
:10152000012000F0B5FC044694B96B4640F22B1242
:101530000021012000F071FD04462CB9BDF8001017
:10154000C1A001F04FFC0AE0204600F037FE06E0A3
:10155000204600F033FE02E0204600F02FFE38BDAA
:10156000F8B500200646054698E2052E30D2DFE8A1
:1015700006F003304C617200681C85B2C0A001F017
:1015800031FC00F065FC0446002C1ED1012000F067
:101590007FFC0446002C14D1C5A001F023FC6B464F
:1015A00040F22B120021012000F037FD04462CB937
:1015B000BDF80010C8A001F015FCF8BD00250126FB
:1015C00006E0204600F0FAFD02E0204600F0F6FDBD
:1015D00059E2681C85B2CDA001F004FC00F038FC93
:1015E000044674B9022000F053FC04462CB9D5A07F
:1015F00001F0F8FB0025022606E0204600F0DEFDA3
:1016000002E0204600F0DAFD3DE2D8A001F0EAFB5E
:1016100000F094FC044624B9DFA001F0E3FB0326AC
:1016200007E0E8A001F0DEFB204600F0C7FD002542
:10163000002628E2F0A001F0D5FB00F09BFC044658
:1016400024B9F7A001F0CEFB042603E000262046D3
:1016500000F0B4FD17E2F9E1683100083C3C2D418F
:10166000533630382D494E464F2D3E3E2020202007
:10167000D6B8C1EE2020202D2D2D2D2D2D2020205F
:10168000202020B9A6C4DC200D0A0A003C3C2D41D4
:10169000533630382D494E464F2D3E3E20202020D7
:1016A000203120202020202D2D2D2D2D2D202020DB
:1016B00020CCEDBCD3D6B8CEC6200D0A0A0000005F
:1016C0003C3C2D41533630382D494E464F2D3E3E41
:1016D00020202020203220202020202D2D2D2D2DB7
:1016E0002D20202020B6D4B1C8D6B8CEC6200D0AF1
:1016F0000A0000003C3C2D41533630382D494E46FF
:101700004F2D3E3E20202020203320202020202D41
:101710002D2D2D2D2D20202020C9BEB3FDD6B8B6ED
:10172000A8D3C3BBA7D6B8CEC60D0A0A00000000D6
:101730003C3C2D41533630382D494E464F2D3E3ED0
:1017400020202020203420202020202D2D2D2D2D44
:101750002D20202020C7E5BFD5D6B8CEC6BFE20DCC
:101760000A0A00003C3C2D41533630382D494E4684
:101770004F2D3E3E20C7E5BFD5D6B8CEC6BFE20D41
:101780000A0A00003C3C2D41533630382D494E4664
:101790004F2D3E3E20C7E5BFD5D6B8CEC6BFE2B37B
:1017A000C9B9A6A3A1A3A1A3A10D0A0D0A0A00000D
:1017B0003C3C2D41533630382D494E464F2D3E3E50
:1017C00020C9BEB3FDD6B8B6A8D3C3BBA749440D44
:1017D0000A0A0000243100083C3C2D4153363038C1
:1017E0002D494E464F2D3E3E20C9BEB3FDD6B8B65C
:1017F000A8D3C3BBA7D6B8CEC6B3C9B9A6A3A1A365
:10180000A1A3A10D0A0D0A0A000000003C3C2D41D5
:10181000533630382D494E464F2D3E3E202A2A2A37
:101820002A2A2AC3FCC1EEA3BAB6D4B1C8D6B8CE10
:10183000C6A3ACC7EBB0B4CAD6D6B82A2A2A2A2A7D
:101840002A0D0A0A000000003C3C2D415336303876
:101850002D494E464F2D3E3E20B6D4B1C8D6B8CE07
:10186000C6B3C9B9A6A3ACD6B8CEC64944A3BA2557
:1018700064A3A1A3A1A3A10D0A0D0A0A0000000000
:101880003C3C2D41533630382D494E464F2D3E3E7F
:10189000202A2A2A2A2A2AC3FCC1EEA3BAC7EBB0FF
:1018A000B4CAD6D6B82A2A2A2A2A2A0D0A0A000039
:1018B0003C3C2D41533630382D494E464F2D3E3E4F
:1018C00020CAE4C8EBD6B8CEC631D5FDB3A3A3A1D8
:1018D000A3A1A3A10D0A0A003C3C2D415336303888
:1018E0002D494E464F2D3E3E20D6B8CEC6D2D1B45D
:1018F000E6D4DAA3ACD6B8CEC64944A3BA2564A3CD
:10190000A1A3A1A3A10D0A0D0A0A00003C3C2D4190
:10191000533630382D494E464F2D3E3E202A2A2A36
:101920002A2A2AC3FCC1EEA3BAC7EBD4D9B0B4D2D9
:10193000BBB4CECAD6D6B82A2A2A2A2A2A0D0A0A1F
:10194000000000003C3C2D41533630382D494E46B6
:101950004F2D3E3E20CAE4C8EBD6B8CEC632D5FDE8
:10196000B3A3A3A1A3A1A3A10D0A0A003C3C2D414E
:10197000533630382D494E464F2D3E3E20D5FDD4AE
:10198000DAB6D4B1C8C1BDB4CECAE4C8EBB5C4D6CA
:10199000B8CEC60D0A0A00003C3C2D415336303803
:1019A0002D494E464F2D3E3E20CAE4C8EBD6B8CE58
:1019B000C6B6D4B1C8B3C9B9A6A3A1A3A1A3A10DAA
:1019C0000A0A00003C3C2D41533630382D494E4622
:1019D0004F2D3E3E20B6D4B1C8CAA7B0DCA3ACC7D9
:1019E000EBD6D8D0C2C2BCC8EBD6B8CEC6A3A1A392
:1019F000A1A3A10D0A0A00003C3C2D41533630380A
:101A00002D494E464F2D3E3E20D5FDD4DAC9FAB3BE
:101A1000C9D6B8CEC6C4A3BFE90D0A0A00000000AB
:101A20003C3C2D41533630382D494E464F2D3E3EDD
:101A300020C9FAB3C9D6B8CEC6C4A3BFE9B3C9B9E1
:101A4000A6A3A1A3A1A3A10D0A0A000000BF3848C4
:101A500001F0C8F900F0AAFA80B20090BDF80000C9
:101A6000B0F5957FF3DCBDF80010022000F0A9FA74
:101A700004461CB92FA001F0B5F99EE500262046CA
:101A800000F09CFB00BF00BF4FF47A7000F05EFED8
:101A9000042D03D133A001F0A5F900E065E500BFF6
:101AA00000BF8AE508B5694638A000F08FFE38A06F
:101AB000009901F097F90098012806D0022809D072
:101AC00003280CD0042814D10EE0FFF749FDFFF7DE
:101AD000DDFC14E0FFF71AFDFFF7D8FC0FE0FFF77D
:101AE000F9FCFFF7D3FC0AE0FFF7E4FCFFF7CEFCBC
:101AF00005E030A001F076F9FFF7C8FC00BF00BF99
:101B000008BD10B535A13B48FFF780FB3AA001F0B6
:101B100069F9454800F0DCF918B144A001F062F918
:101B200004E050A001F05EF9FFF7B0FC10BD00002A
:101B3000243100083C3C2D41533630382D494E4667
:101B40004F2D3E3E20C2BCC8EBD6B8CEC6C4A3BF04
:101B5000E9B3C9B9A6A3A1A3A1A3A10D0A0D0A0ABD
:101B6000000000003C3C2D41533630382D494E4694
:101B70004F2D3E3E20C2BCD6B8CEC6CAA7B0DCA30D
:101B8000A10D0A0D0A0D0A0A0000000025640000DC
:101B90003C3C2D41533630382D494E464F2D3E3E6C
:101BA00020BDD3CAD5B5BDD7D6B7FBA3BA25640D22
:101BB0000A0A00003C3C2D41533630382D494E4630
:101BC0004F2D3E3E20C7EBCAE4C8EBBACFB7A8D62C
:101BD000B8C1EEA3A10D0A0D0A0A0000D5E2CAC7DA
:101BE000D2BBB8F6D6B8CEC6C4A3BFE9CAB5D1E950
:101BF0000D0A0000003801403C3C2D41533630387E
:101C00002D494E464F2D3E3E20BBB6D3ADCAB9D36B
:101C1000C3B1FCBBF053544D3332BFAAB7A2B0E5F9
:101C20000D0A0D0A0A000000280000203C3C2D414E
:101C3000533630382D494E464F2D3E3E20CEB4BC53
:101C4000ECB2E2B5BDD6B8CEC6C4A3BFE9A3ACC75B
:101C5000EBBCECB2E9C1ACBDD3A3A1A3A1A3A10D80
:101C60000A0A00003C3C2D41533630382D494E467F
:101C70004F2D3E3E20CDA8D1B6B3C9B9A60D0A0A54
:101C80000000000008B54FF4A060FEF75DFB2620C1
:101C90008DF8000001208DF801008DF802008DF80C
:101CA00003006846FEF755FB0A208DF8000001206E
:101CB0008DF8010002208DF802006846FEF749FB0E
:101CC00008BD00B587B001210520FEF755FF0121B1
:101CD0000420FEF751FF01214804FEF75AFFFFF7E9
:101CE000D1FF1020ADF8180004208DF81B0006A9C4
:101CF000FE48FEF785FC04210020FEF797FD10202A
:101D0000049000208DF8140010208DF8150001209B
:101D10008DF8160004A8FEF793FB0420ADF8180018
:101D200018208DF81B0003208DF81A0006A9EF4833
:101D3000FEF766FC0820ADF8180004208DF81B00A3
:101D400006A9EA48FEF75CFC4FF4614000900020D1
:101D5000ADF80400ADF80600ADF80800ADF80C00D1
:101D60000C20ADF80A006946E148FEF7ACFF0122FD
:101D700040F22551DE48FFF73EF8012240F22441AF
:101D8000DB48FFF738F80121D948FFF728F807B0FA
:101D900000BD10B504462146D548FFF78DF800BFB9
:101DA0008021D348FFF7F6F80028F9D010BD10B510
:101DB000EF20FFF7EEFF0120FFF7EBFFCD490968A9
:101DC000080EFFF7E6FFCB480068C0F30740FFF7B7
:101DD000E0FFC8480088C0F30720FFF7DAFFC549D5
:101DE0000878FFF7D6FF10BD10B504462046FFF770
:101DF000D0FF10BD10B504462012FFF7CAFFE0B2B5
:101E0000FFF7C7FF10BD10B504462046FFF7C1FF1E
:101E100010BD10B504462012FFF7BBFFE0B2FFF77C
:101E2000B8FF10BD70B50446B348FFF780FA054609
:101E300055B100BF286800BF2868407A2080AE48AE
:101E4000FFF78FFA208870BDFF2020802088FAE7F6
:101E500038B50020009040F6B83000F077FCFFF76E
:101E6000A6FF0120FFF7C0FF0320FFF7C3FF0120FB
:101E7000FFF7C9FF05242046FFF7CBFF4FF4FA70A8
:101E800000F064FC6846FFF7CDFF0546284638BDE4
:101E9000F8B5044600200090FFF789FF0120FFF706
:101EA000A3FF0420FFF7A6FF0220FFF7ACFF2046A8
:101EB000FFF76FFFE51D2846FFF7ABFF4FF41670E5
:101EC00000F044FC6846FFF7ADFF06463046F8BD1B
:101ED00038B50546FFF76BFF0120FFF75AFF0020DA
:101EE000FFF757FF0020FFF754FF642000F02EFC9F
:101EF0008148FFF71CFA0446002C1DD000BF206863
:101F000000BF20680078EF2811D1206840780128B0
:101F10000DD120688079072809D120684079009088
:101F200020680379C278817874A000F05BFF724862
:101F3000FFF717FA002038BD0120FCE738B5002074
:101F40000090FFF734FF0120FFF74EFF0320FFF75B
:101F500051FF0320FFF757FF07242046FFF759FFE3
:101F60004FF4FA7000F0F2FB6846FFF75BFF05469E
:101F7000284638BD38B500200090FFF718FF012033
:101F8000FFF732FF0320FFF735FF0520FFF73BFF88
:101F900009242046FFF73DFF4FF4FA7000F0D6FB0E
:101FA0006846FFF73FFF0546284638BD08B5694635
:101FB0005EA000F00BFC5EA0009900F013FF0098FB
:101FC00008BDF8B505460C4600200090FFF7EFFE6F
:101FD0000120FFF709FF0620FFF70CFF0620FFF79F
:101FE00012FF2846FFF7D5FE2012FFF7D2FEE0B21F
:101FF000FFF7CFFE05F10D0000EB2420E1B24618FB
:102000003046FFF706FF4FF4FA7000F09FFB68467A
:10201000FFF708FF07463846F8BD2DE9F047804630
:102020000C4615469946FFF7C2FE0120FFF7DCFE7D
:102030000820FFF7DFFE1B20FFF7E5FE4046FFF715
:10204000A8FE2012FFF7A5FEE0B2FFF7A2FE2812BD
:10205000FFF79FFEE8B2FFF79CFE08F1240000EBBB
:102060002420E1B2084400EB2520E9B200EB010A8C
:102070005046FFF7CEFE4FF4FA7000F067FB1E48A3
:10208000FFF755F9064696B100BF306800BF3068CB
:10209000477A3068C07A3168897A00EB0120A9F864
:1020A00000001548FFF75DF93846BDE8F087FF27C7
:1020B0003846FAE7F8B504460D4600200090FFF7D1
:1020C00076FE0120FFF790FE0720FFF793FE0C201D
:1020D000FFF799FE2012FFF75CFEE0B2FFF759FE12
:1020E0002812FFF756FEE8B234E000000008014075
:1020F00000440040280000204C0000203C3C2D41C2
:10210000533630382D494E464F2D3E3E20D6B8CE60
:10211000C6C4A3BFE9B5C4B5D8D6B7CEAA3A3078FD
:1021200025782578257825780D0A0A002564000091
:102130003C3C2D41533630382D494E464F2D3E3EC6
:1021400020CAE4C8EBB5C449443A6E756D3D2564B8
:102150000D0A0A00FFF71DFE142000EB2420E1B257
:10216000084400EB2520E9B246183046FFF751FE3F
:102170004FF4C87000F0EAFA6846FFF753FE0746CE
:102180003846F8BD38B500200090FFF710FE01205A
:10219000FFF72AFE0320FFF72DFE0D20FFF733FE89
:1021A00011242046FFF735FE4FF4C87000F0CEFA38
:1021B0006846FFF737FE0546284638BD10B5044689
:1021C000212C6AD2DFE804F01115191D2125292DD3
:1021D0003135393D696969694145696969496969A3
:1021E0004D5155595D69696165002FA000F0FAFDF8
:1021F00057E033A000F0F6FD53E03AA000F0F2FD06
:102200004FE044A000F0EEFD4BE04CA000F0EAFDF2
:1022100047E058A000F0E6FD43E064A000F0E2FDD6
:102220003FE06E4800F0DEFD3BE06DA000F0DAFD1F
:1022300037E074A000F0D6FD33E081A000F0D2FDBD
:102240002FE088A000F0CEFD2BE094A000F0CAFDA6
:1022500027E09BA000F0C6FD23E0A2A000F0C2FD95
:102260001FE0AEA000F0BEFD1BE0B5A000F0BAFD7F
:1022700017E0BBA000F0B6FD13E0C2A000F0B2FD75
:102280000FE0CAA000F0AEFD0BE0D2A000F0AAFD66
:1022900007E0D8A000F0A6FD03E0DEA000F0A2FD5C
:1022A00000BF00BF10BD00003C3C2D41533630380C
:1022B0002D494E464F2D3E3E204F4B0D0A0A000041
:1022C0003C3C2D41533630382D494E464F2D3E3E35
:1022D00020CAFDBEDDB0FCBDD3CAD5B4EDCEF30D32
:1022E0000A0A00003C3C2D41533630382D494E46F9
:1022F0004F2D3E3E20D6B8CEC6C4A3BFE9C3BBD344
:10230000D0BCECB2E2B5BDD6B8CEC6A3A10D0A0AC8
:10231000000000003C3C2D41533630382D494E46DC
:102320004F2D3E3E20C2BCC8EBD6B8CEC6CDBCCFEA
:10233000F1CAA7B0DC0D0A0D0A0A00003C3C2D4191
:10234000533630382D494E464F2D3E3E20D6B8CE1E
:10235000C6CDBCCFF1CCABB8C9A1A2CCABB5ADB6A4
:10236000F8C9FAB2BBB3C9CCD8D5F70D0A0D0A0A21
:10237000000000003C3C2D41533630382D494E467C
:102380004F2D3E3E20D6B8CEC6CDBCCFF1CCABCA89
:10239000AAA1A2CCABBAFDB6F8C9FAB2BBB3C9CCFC
:1023A000D8D5F70D0A0D0A0A000000003C3C2D416B
:1023B000533630382D494E464F2D3E3E20D6B8CEAE
:1023C000C6CDBCCFF1CCABC2D2B6F8C9FAB2BBB362
:1023D000C9CCD8D5F70D0A0D0A0A0000BC31000897
:1023E0003C3C2D41533630382D494E464F2D3E3E14
:1023F00020D6B8CEC6B2BBC6A5C5E40D0A0D0A0AE2
:10240000000000003C3C2D41533630382D494E46EB
:102410004F2D3E3E20B6D4B1C8D6B8CEC6CAA7B05E
:10242000DCA3ACD6B8CEC6BFE2B2BBB4E6D4DAB455
:10243000CBD6B8CEC6A3A10D0A0D0A0A0000000033
:102440003C3C2D41533630382D494E464F2D3E3EB3
:1024500020CCD8D5F7BACFB2A2CAA7B0DC0D0A0AF1
:10246000000000003C3C2D41533630382D494E468B
:102470004F2D3E3E20B7C3CECAD6B8CEC6BFE2CAA5
:10248000B1B5D8D6B7D0F2BAC5B3ACB3F6D6B8CEDC
:10249000C6BFE2B7B6CEA70D0A0A00003C3C2D41EC
:1024A000533630382D494E464F2D3E3E20C9BEB3DF
:1024B000FDC4A3B0E5CAA7B0DC0D0A0A0000000005
:1024C0003C3C2D41533630382D494E464F2D3E3E33
:1024D00020C7E5BFD5D6B8CEC6BFE2CAA7B0DC0DCF
:1024E0000A0A00003C3C2D41533630382D494E46F7
:1024F0004F2D3E3E20BBBAB3E5C7F8C4DAC3BBD309
:10250000D0D3D0D0A7D4ADCABCCDBCB6F8C9FAB22E
:10251000BBB3C9CDBCCFF10D0A0A00003C3C2D4134
:10252000533630382D494E464F2D3E3E20B6C1D051
:10253000B420464C41534820B3F6B4ED0D0A0A00CE
:102540003C3C2D41533630382D494E464F2D3E3EB2
:1025500020CEB4B6A8D2E5B4EDCEF30D0A0A000041
:102560003C3C2D41533630382D494E464F2D3E3E92
:1025700020CEDED0A7BCC4B4E6C6F7BAC50D0A0AA1
:10258000000000003C3C2D41533630382D494E466A
:102590004F2D3E3E20BCC4B4E6C6F7C9E8B6A8C479
:1025A000DAC8DDB4EDCEF30D0A0A00003C3C2D4143
:1025B000533630382D494E464F2D3E3E20BCC7CABB
:1025C000C2B1BED2B3C2EBD6B8B6A8B4EDCEF30D4D
:1025D0000A0A00003C3C2D41533630382D494E4606
:1025E0004F2D3E3E20D6B8CEC6BFE2C2FA0D0A0A33
:1025F000000000003C3C2D41533630382D494E46FA
:102600004F2D3E3E20B5D8D6B7B4EDCEF30D0A0A15
:10261000000000003C3C2D41533630382D494E46D9
:102620004F2D3E3E20C4A3BFE9B7B5BBD8C8B7C83D
:10263000CFC2EBD3D0CEF30D0A0A000008B50121BA
:102640000820FEF799FA2020ADF8000010208DF840
:10265000030003208DF8020069460448FDF7D0FF0F
:1026600020210248FEF779F808BD0000000C014067
:1026700030B50146B1F1807F01D3012030BD21F09A
:102680007F40401E4FF0E022506150170F2200287B
:1026900007DA13071D0E3E4B00F00F04241F1D55D3
:1026A00003E013071C0E3B4B1C5400BF00204FF0EF
:1026B000E0229061072010610020DFE710B5364866
:1026C00000683649B0FBF1F42046FFF7D1FF08B1AE
:1026D00000BFFEE710BD01B53149009808604FF01A
:1026E000E020006940F001004FF0E021086100BFE8
:1026F0002B4800680028FBD108BD2948006820B19C
:1027000027480068401E26490860704731B52248B6
:1027100000682449B0FBF1F52846FFF7A9FF002423
:1027200008E000BF4FF0E020006900F4803000288E
:10273000F8D0641C00988442F3D34FF0E020006985
:1027400020F001004FF0E021086138BD31B512489A
:1027500000684FF47A71B0FBF1F52846FFF788FF67
:10276000002408E000BF4FF0E020006900F4803052
:102770000028F8D0641C00988442F3D34FF0E02086
:10278000006920F001004FF0E021086138BD000031
:1027900018ED00E000E400E000000020A086010049
:1027A0002C00002040420F00D2B201E000F8012BC3
:1027B000491EFBD270470022F6E710B513460A46C1
:1027C00004461946FFF7F0FF204610BD0FB400B5D0
:1027D00089B00BA800906A4603480A9900F0ECF80B
:1027E00009B05DF814FB0000300000202DE9FF5F08
:1027F0001D464FF0FF3BD5E9014691465F464FF03D
:102800000008A9697F1C01988847296A8246884781
:102810000028F6D1BAF1FF3F0CD024F4C064002E9A
:1028200019DD600614D5BAF12B0F09D0BAF12D0FBE
:102830000ED103E0584604B0BDE8F09F44F4806434
:10284000A9697F1C01988847761E8246002E02DD0A
:10285000BAF1300F03D0B9F1000F26D032E0A969E8
:10286000761E44F400747F1C019888478246002E2F
:1028700005DDBAF1780F06D0BAF1580F03D0B9F1DF
:10288000000F10D01EE0B9F1000F02D0B9F1100F07
:1028900018D1A969761E24F400747F1C019888471A
:1028A0008246102002E0082000E00A20814609E06C
:1028B00008FB0908A969761E44F400747F1C01987E
:1028C00088478246002E05DD4946504600F065F8EF
:1028D0000028EDDAE96901988847A00502D46FF075
:1028E0000100A8E7E00725D1600613D5600502D5F1
:1028F000C8F1000000E0404629680A1D2A60096806
:10290000220501D5087015E0220701D5088011E0E5
:1029100008600FE02868011D29600068210502D5C4
:1029200080F8008006E0210702D5A0F8008001E0D1
:10293000C0F8008038467EE72DE9F05F05460020AC
:1029400092469B4688460646814640241BE0284620
:1029500041464746224600F070F853465A46C01A90
:10296000914110D311461846224600F057F82D1A0F
:1029700067EB01084F4622460120002100F04EF887
:1029800017EB00094E41201EA4F10104DFDC48468C
:1029900031462A464346BDE8F09F3A2800D23038F7
:1029A00020F02002412A01D3A2F13700884201D34E
:1029B0004FF0FF3070470000024B9361024BD36130
:1029C00000F052B8931200080D2A0008064C074D7B
:1029D00006E0E06840F0010394E8070098471034EF
:1029E000AC42F6D3FDF7A8FB0832000828320008F5
:1029F000094910B508784C1C18B1401E0870205CBD
:102A000010BD00210720ABBE207010BD0249087820
:102A1000421C0A707047000038000020202A04DBA6
:102A2000203A00FA02F1002070479140C2F12003E1
:102A300020FA03F3194390407047202A04DB203A20
:102A400021FA02F00021704721FA02F3D040C2F1CE
:102A50002002914008431946704700000268114463
:102A60001378016018467047D160044951610449E8
:102A7000116200211161114600F00AB85D2A0008B8
:102A8000852A0008C0B24FF4F05100F097B9000059
:102A90002DE9F34F8BB04FF0000801F10C000C460C
:102AA0004FF0010B46460DF1080A019062690121C1
:102AB00001989047051E2DD0252D2CD0216A8847DE
:102AC000C0B16269012101989047216A88470028B6
:102AD000F7D1411E62690198904700E0761CA16918
:102AE0000B988847216A88470028F7D1E1690B983D
:102AF0008847DBE7A1690B9888470746A84201D1C0
:102B0000761CD3E7E1690B9888477F1C02D1B8F1A6
:102B1000000F6FD046E1002762693D4639460198B3
:102B200090472A2804D16269012101989047012524
:102B3000DFF884926269012101989047A0F1300189
:102B40000A290AD24F45E5DC07EB870100EB410774
:102B5000303FDFD445F01005ECE7E90601D46FF013
:102B600000476C280AD04C2814D0682815D06A2851
:102B70000DD074281CD07A281AD01DE0626901217A
:102B8000019890476C2802D045F0040514E045F008
:102B900002050DE045F020050AE062690121019877
:102BA0009047682802D045F0080505E045F4006527
:102BB0006269012101989047C4E9015765283DD019
:102BC00019DC58287AD00CDC452837D004DC2528BD
:102BD00026D0412831D131E046282FD047282CD1AA
:102BE0002CE05B2877D0612828D063287CD064282B
:102BF00023D15AE0D0E06F2848D008DC66281DD0E9
:102C000067281BD0692821D06E2816D127E07028AC
:102C100045D0732868D0752847D078280DD14DE06D
:102C2000A1690B988847054625283FF469AFE169FB
:102C30000B9888476D1C3FF46AAFB3E023466A46A1
:102C40006FF001000B99AFF300809EE045F040006B
:102C50006060A80723464FF0000236D43EE0E80744
:102C60007FF447AF2068011D21600068290501D568
:102C700006701BE7290701D5068017E7A90703D5CA
:102C8000F117C0E9006111E706600FE745F0400069
:102C90006060A80723464FF0080216D41EE040F6F5
:102CA0000E0125EA0100606016E045F0400060601A
:102CB000A80723464FF00A0207D40FE045F0400072
:102CC0006060A80708D5234610226FF001000B9919
:102CD000AFF3008059E007E0234610226FF00100B7
:102CE0000B99FFF783FD50E04FF000094F464B462C
:102CF000632802D05B2806D040E0E80601D401201A
:102D0000A06001273AE062690121019890475E289E
:102D100005D14FF001096269494601989047216940
:102D200039B900210A46534643F82120491C082995
:102D3000FADBB0B3216969B9C11700EBD162531155
:102D40000AEB830122F01F02821A01200B689040D7
:102D500003430B6062690121019890475D28E8D127
:102D6000B9F1000F09D00020514651F82020D2437C
:102D700041F82020401C0828F7DB02AB22460097D0
:102D80006FF001000B99AFF3008000280CDA401CB3
:102D900008D1BBF1000F05D04FF0FF300DB0BDE8FA
:102DA000F08FFFE74046F9E7E90701D108F1010894
:102DB00006444FF0000B79E6CCCCCC0C7F2801D92F
:102DC000002208E0064A02EB5002C007127800D148
:102DD000120902F00F0201209040084070470000E5
:102DE000E43000080FB4054B10B503A9044A02985B
:102DF00000F018F810BC5DF814FB00007312000816
:102E00003400002002E008C8121F08C1002AFAD1CD
:102E100070477047002001E001C1121F002AFBD15A
:102E2000704700002DE9FF4F8DB09B460F460446CA
:102E3000002606E025280BD05A460F999047641CBF
:102E4000761C20780028F5D111B03046BDE8F08F0F
:102E50000025A8460122984900E0054314F8013FE7
:102E6000203B02FA03F00842F7D120782E2817D130
:102E700014F8010F45F004052A280ED06FF02F0238
:102E80002078A0F1300109290AD808EB880102EB6B
:102E9000410100EB0108641CF2E757F8048B641C45
:102EA00020786C280DD004DC4C2812D06A2811D16F
:102EB00004E074280DD07A280CD10AE045F40015FE
:102EC00007E0617845F48015814202D1641C05F564
:102ED0008015641C2278692A45D008DC002AB3D00A
:102EE000582A69D0632A10D0642A08D13BE0702A9E
:102EF00067D0732A13D0752A5CD0782A5CD010462C
:102F00005A460F999047761CD3E017F8040B8DF8BA
:102F1000000000208DF80100E946012003E057F889
:102F2000049B4FF0FF3069074FF0000501D40AE021
:102F30006D1C45450DDA8542FADB19F805100029AC
:102F4000F6D106E06D1C8542FCDB19F8051000295E
:102F5000F8D12E4404E019F8010B5A460F99904716
:102F60006D1EF8D2A5E00A200021CDE90801C5F3C5
:102F7000025002280DD001CFC117031E71F10003CA
:102F80000DDA4FF0000CD0EB0C006CEB01012D239F
:102F900008E0FF1D27F00707F7E80201EDE72B0522
:102FA00004D52B238DF8283001233BE0EB0739D0E3
:102FB0002023F7E70A2000E010200021CDE90801D6
:102FC00007E01020002145F00405CDE908014FF08D
:102FD0000808C5F3025002280FD001CF00214FF09E
:102FE000000A2B071FD5702A0DD0DDE908C38CF02D
:102FF000100C5CEA030C0CD015E0FF1D27F007074E
:10300000F7E80201EBE740228DF828204FF0010A93
:103010000BE050EA010306D030238DF828308DF8FC
:10302000292002239A46582A04D024A20DF120090F
:103030000B9209E026A2F9E7DDE90823FFF77CFC03
:103040000B9B9B5C09F8013D50EA0102F4D1ADEB0A
:10305000090020300890680701D44FF00108089952
:10306000884502DDA8EB010000E000208046002535
:1030700006E00AA85A46405D0F9990476D1C761CE1
:103080005545F6DB04E030205A460F999047761CF0
:10309000B8F10001A8F10108F5DC05E019F8010B11
:1030A0005A460F999047761C0899481E08900029A7
:1030B000F4DC641CC5E6000009280100303132331D
:1030C0003435363738396162636465660000000064
:1030D000303132333435363738394142434445464E
:1030E00000000000DDDDDDDDDCBBBBDDDDDDDDDDC9
:1030F000DDDDDDDD98888888888888887777777730
:1031000077888888855555566666666666666666FB
:1031100066688888833333322222222222222222A6
:103120002228888D3C3C2D41533630382D494E465F
:103130004F2D3E3E202A2A2A2A2A2AC3FCC1EEA36A
:10314000BAC7EBCAE4C8EBB4E6B4A24944A3ACB72F
:10315000B6CEA7CEAA30A1AA3239392A2A2A2A2ADB
:103160002A0D0A0A000000003C3C2D41533630383D
:103170002D494E464F2D3E3E20202020C7EBCAE46D
:10318000C8EBD6B8C1EEA3ACCAE4C8EBD6B8C1EE62
:10319000BAF3C7EBD4DACAE4C8EBB4B0BFDAB0B460
:1031A000BBD8B3B5BCFCBAF3D4D9B7A2CBCDD6B893
:1031B000C1EEA3A1A3A1A3A10D0A0A003C3C2D418D
:1031C000533630382D494E464F2D3E3E20D6B8CE90
:1031D000C6CDBCCFF1D5FDB3A3A3ACB5ABCCD8D590
:1031E000F7B5E3CCABC9D9A3A8BBF2C3E6BBFDCC12
:1031F000ABD0A1A3A9B6F8C9FAB2BBB3C9CCD8D594
:10320000F70D0A0A00000000283200080000002024
:103210003C000000042E0008643200083C0000203E
:103220006C040000142E000800A24A0400000000F4
:103230000000000001020304060708090000000066
:103240000102030401020304060708090204060838
:10325000FFFFFFFF00000000000000000000000072
:04326000000000006A
:0400000508000131BD
:00000001FF
