:020000040800F2
:10000000C00A002045010008251500082715000832
:100010002B1500082F1500083315000800000000FC
:10002000000000000000000000000000371500087C
:1000300039150008000000003B1500083D150008B8
:100040005F0100085F0100085F0100085F01000810
:100050005F0100085F0100085F0100085F01000800
:100060005F0100085F0100083F1500085F010008FC
:100070005F0100085F0100085F0100085F010008E0
:100080005F0100085F0100085F0100085F010008D0
:100090005F0100085F0100085F0100085F010008C0
:1000A0005F0100085F0100085F0100085F010008B0
:1000B0005F0100085F0100085F0100085F010008A0
:1000C0005F0100085F0100085F0100085F01000890
:1000D0005F0100085F0100085D1500085F0100086E
:1000E0005F0100085F0100085F0100085F01000870
:1000F0005F0100085F0100085F0100085F01000860
:100100005F010008CD6300085F0100085F0100087F
:100110005F0100085F0100085F0100085F0100083F
:100120005F0100085F0100085F0100085F0100082F
:10013000DFF80CD007F020F80048004771140008E1
:10014000C00A00200648804706480047FEE7FEE751
:10015000FEE7FEE7FEE7FEE7FEE7FEE7FEE7FEE777
:1001600047020008310100080CB500200190009002
:100170006C48006840F480306A49086000BF6948F4
:10018000006800F4003000900198401C0190009835
:1001900018B90198B0F5A06FF1D16248006800F479
:1001A000003010B10120009001E000200090009884
:1001B000012843D15C48006840F010005A490860AB
:1001C0000846006820F0030008600846006840F018
:1001D0000200086053484068524948600846406839
:1001E00048600846406840F48060486008464068BF
:1001F00020F47C1048600846406840F4E8104860ED
:100200000846006840F08070086000BF45480068FC
:1002100000F000700028F9D04248406820F0030048
:10022000404948600846406840F00200486000BF0E
:100230003C48406800F00C000828F9D10CBD10B50E
:10024000FFF792FF10BD10B53648006840F001007E
:1002500034490860084640683449084031494860DC
:1002600008460068324908402E4908600846006880
:1002700020F4802008600846406820F4FE004860B2
:100280004FF41F008860FFF7DAFF4FF00060294944
:10029000086010BD10B5002100200022214B5B68D2
:1002A00003F00C0121B1042906D0082928D107E068
:1002B000214B224C236027E01F4B204C236023E07E
:1002C000184B5B6803F47010164B5B6803F48032C4
:1002D000022303EB904022B9194B4343174C236090
:1002E0000DE0104B5B6803F4003323B1144B434320
:1002F000124C236003E0104B4343104C236003E097
:100300000D4B0E4C236000BF00BF064B5B68C3F370
:1003100003130C4CE15C094B1B68CB40074C23607A
:1003200010BD000000100240002002400000FFF855
:10033000FFFFF6FE08ED00E000127A00000000204A
:1003400000093D000400002031490143314A116099
:10035000704770B5002100230F22C47804B32D4CE0
:10036000246804F4E064C4F5E064210AC1F10403E4
:10037000CA40447804FA03F1847814402143090107
:10038000254C0678A155047804F01F050124AC40E3
:1003900005786D11AD0005F1E025C5F8004109E0D3
:1003A000047804F01F050124AC401C4D067876113A
:1003B00045F8264070BD1A4A0A400243154B1B1FE0
:1003C0001A60704739B1134A121D12680243114B6B
:1003D0001B1D1A6006E00F4A121D126882430D4B66
:1003E0001B1D1A607047042808D14FF0E0210969ED
:1003F00041F004014FF0E022116107E04FF0E021ED
:10040000096921F004014FF0E022116170470000FA
:100410000000FA050CED00E000E400E080E100E0FF
:1004200080FFFF1F01684FF6FE721140016000213E
:10043000016041608160C1608D49884208D18C496A
:100440000839496841F00F01894A083A51608AE049
:1004500087491431884208D185490839496841F0F3
:10046000F001834A083A51607DE081492831884291
:1004700008D17F490839496841F470617C4A083ADB
:10048000516070E07A493C31884208D17849083996
:10049000496841F47041764A083A516063E0744912
:1004A0005031884208D172490839496841F47021B5
:1004B0006F4A083A516056E06D496431884208D16C
:1004C0006B490839496841F47001694A083A51603A
:1004D00049E067497831884208D165490839496857
:1004E00041F07061624A083A51603CE061498842DB
:1004F00006D1011F096841F00F01021F116032E0AF
:100500005C491431884208D15A49091F096841F0F1
:10051000F001584A121F116025E0564928318842DF
:1005200008D15449091F096841F47061514A121FEA
:10053000116018E04F493C31884208D14D49091FEC
:10054000096841F470414B4A121F11600BE04949A0
:100550005031884207D14749091F096841F4702189
:10056000444A121F1160704710B50022026847F616
:10057000F0739A430C6A8B6823430C6923434C69DC
:1005800023438C692343CC6923434C6A23438C6AFD
:1005900023431A430260CB6843600B6883604B6857
:1005A000C36010BD0021016041608160C1600161D4
:1005B00041618161C161016241628162704721B123
:1005C000026842F00102026004E002684FF6FE7326
:1005D0001A40026070471AB103680B43036002E0DF
:1005E00003688B4303607047416070470146486869
:1005F00080B2704701460020002201F080531BB1F9
:100600001C4B083B1A6802E0194B083B1A6802EAC7
:1006100001030BB1012000E00020704700F0805181
:1006200019B11449091F086002E0114908394860EE
:10063000704701460020002201F080531BB10D4B92
:10064000083B1A6802E00A4B083B1A6802EA0103F9
:100650000BB1012000E00020704700F0805119B17B
:100660000449091F086002E00149083948607047E1
:100670000800024008040240002044490860091DA7
:100680000860091D0860091D086041483F49143190
:100690000860704700213D498279002A3AD00A4615
:1006A000126803689A430B461A600A1D12680368B1
:1006B0009A430B1D1A60027911440A6803681A43B1
:1006C0000A60324A0832126803689A432F4B083393
:1006D0001A601A1D126803689A432C4B0C331A6077
:1006E0004279102A0ED11A1F126803681A43274B49
:1006F00008331A601A1D126803681A43234B0C331F
:100700001A600DE02149427911440A6803681A43CE
:100710000A6005E0027911440A6803689A430A6096
:1007200070470021016001710C214171002181712C
:1007300070471649103109680143144A103211609C
:10074000704701460020114A143212680A400AB16B
:10075000012000E0002070470C4914310860704708
:10076000014600200022094B1B6803EA0102074BE7
:1007700014331B680B4013B10AB1012000E00020C4
:1007800070470249143108607047000000040140BE
:10079000FFFF0F0010B50446CC48844208D1012168
:1007A000042000F02DFB0021042000F029FB46E08E
:1007B000C748844208D10121082000F021FB002114
:1007C000082000F01DFB3AE0C248844208D1012114
:1007D000102000F015FB0021102000F011FB2EE08E
:1007E000BD48844208D10121202000F009FB0021EE
:1007F000202000F005FB22E0B848844208D1012106
:10080000402000F0FDFA0021402000F0F9FA16E047
:10081000B348844208D10121802000F0F1FA002180
:10082000802000F0EDFA0AE0AE48844207D10121B1
:10083000801500F0E5FA0021A01500F0E1FA10BDE6
:1008400010B50121084600F0DBFA0021012000F07C
:10085000D7FA10BD2DE9F041024600250026002000
:1008600000230024002791F803C00CF00F0591F835
:1008700003C00CF0100CBCF1000F03D091F802C0C3
:100880004CEA050591F800C0BCF1000F31D01468A6
:1008900000202BE04FF0010C0CFA00F3B1F800C07F
:1008A0000CEA03069E4220D183004FF00F0C0CFA95
:1008B00003F7BC4305FA03FC4CEA040491F803C0B7
:1008C000BCF1280F06D14FF0010C0CFA00FCC2F865
:1008D00014C00AE091F803C0BCF1480F05D14FF0F5
:1008E000010C0CFA00FCC2F810C0401C0828D1D33F
:1008F0001460B1F800C0BCF1FF0F34DD5468002073
:100900002EE000F1080C4FF0010808FA0CF3B1F8E2
:1009100000C00CEA03069E4221D183004FF00F0C69
:100920000CFA03F7BC4305FA03FC4CEA040491F803
:1009300003C0BCF1280F05D100F1080C08FA0CF82F
:10094000C2F8148091F803C0BCF1480F07D100F140
:10095000080C4FF0010808FA0CF8C2F81080401C8F
:100960000828CED35460BDE8F0814FF6FF710180B6
:10097000022181700421C1707047024600209368F3
:100980000B400BB1012000E0002070470146886851
:1009900080B2704702460020D3680B400BB10120A3
:1009A00000E0002070470146C86880B270470161CE
:1009B0007047416170470AB1016100E041617047D1
:1009C000C16070474FF480320A4382618161826165
:1009D00082698269704702460020434B18684FF6CF
:1009E0008073184040EA021008433F4B186070477C
:1009F0003E49C8617047F0B50A4600230024002133
:100A0000002500F00046B6F1004F02D1364EF169E4
:100A100001E0354E7168C0F3034583B200F440161F
:100A2000B6F5401F08D121F070612F4E766826F090
:100A300070662D4F7E6012E000F48016B6F5801FC0
:100A400006D1032606FA05F4A14341F0706106E0E1
:100A5000460D360103FA06F6B14341F0706122B14A
:100A6000460D360103FA06F6314300F00046B6F1B2
:100A7000004F02D11C4EF16101E01B4E7160F0BDD0
:100A800030B500228B071C0F0F2303FA04F2164B1C
:100A900008338C1053F824309343134C08348D10D2
:100AA00044F8253023468C1053F824308C07240F4B
:100AB00000FA04F423430C4C08348D1044F825301C
:100AC00030BD0A49DC310860704700000008014071
:100AD000000C0140001001400014014000180140CA
:100AE000001C0140002001400000014000002042A5
:100AF000DF48006840F00100DD49086008464068B2
:100B0000DC490840DA49486008460068DA4908408C
:100B1000D74908600846006820F48020086008462D
:100B2000406820F4FE0048604FF41F008860704762
:100B3000CF49096821F48031CD4A11601146096816
:100B400021F480211160B0F5803F03D0B0F5802FF3
:100B50000ED106E0C649096841F48031C44A1160EB
:100B600007E0C349096841F4A021C14A116000E0CF
:100B700000BF00BF704710B50146002200230020CF
:100B80004A11012A02D1BA4C236806E0022A02D196
:100B9000B74C236A01E0B64C636A01F01F020124DE
:100BA00094401C400CB1012000E0002010BD38B57D
:100BB000002000900024002500BF3120FFF7DBFF5C
:100BC00005460098401C00900098B0F5A06F01D039
:100BD000002DF2D03120FFF7CEFF08B1012400E054
:100BE0000024204638BD01460020A14A106820F0AC
:100BF000F80040EAC10010607047A04908607047E3
:100C0000024600209A4B586820F47C1042EA010307
:100C10001843974B586070479849086670470146DB
:100C20000020934A506820F003000843506070474A
:100C30008F48406800F00C007047014600208C4A45
:100C4000506820F0F00008435060704701460020D3
:100C5000874A506820F4E0600843506070470146BE
:100C60000020834A506820F4605040EAC100506080
:100C7000704729B17E4A527A02437D4B5A7204E092
:100C80007B4A527A82437A4B5A7270477B49D831F9
:100C90000860704701460020754A506820F44040C3
:100CA0000843506070470021714A20321170704A29
:100CB00082F82010012802D004280AD104E0012182
:100CC0006B4A2032117005E00521694A203211700B
:100CD00000E000BF00BF7047694908607047644981
:100CE000096A0143624A11627047654944390860E4
:100CF000704730B500210022002400235C4D6D6850
:100D000005F00C0121B1042905D0082923D105E003
:100D10005C4D056022E05B4D05601FE0544D6D6841
:100D200005F47012524D6D6805F48034022505EB10
:100D300092421CB9544D554305600BE04C4D6D6813
:100D400005F400351DB1504D5543056002E04D4D91
:100D50005543056002E04B4D056000BF00BF444DA8
:100D60006D6805F0F0010909484D6B5C0568DD40D0
:100D700045603F4D6D6805F4E061090A434D6B5CC9
:100D80004568DD4085603A4D6D6805F46051C90ADB
:100D90003E4D6B5C4568DD40C560354D6D6805F4C2
:100DA0004041890B3A4D6B5CC568B5FBF3F50561B5
:100DB00030BD29B12E4A526902432D4B5A6104E0DD
:100DC0002B4A526982432A4B5A61704729B1284AFB
:100DD00092690243264B9A6104E0254A9269824354
:100DE000234B9A61704729B1214AD2690243204BB3
:100DF000DA6104E01E4AD26982431D4BDA61704712
:100E000029B11B4AD2680243194BDA6004E0184A40
:100E1000D2688243164BDA60704729B1144A1269CE
:100E20000243134B1A6104E0114A12698243104BCA
:100E30001A61704712494039086070470F49C86409
:100E400070470B49C87170470948406A40F080708C
:100E500007494862704701460020054A92680A40E7
:100E60000AB1012000E000207047014988727047F4
:100E7000001002400000FFF8FFFFF6FE00004242B3
:100E80008004424200127A0000093D001400002054
:100E90002400002000206F49086048608860C86016
:100EA00048628862C8626C4888630020C8637047E3
:100EB0000021684A516847F6FF629143027D8368CA
:100EC0001A4343681A43C3681A4303681A43036901
:100ED0001A4311435F4A5160704700210175016058
:100EE00041608160C160016170475C490860704782
:100EF0005849096821F00301564A116011460968F2
:100F00000143116070475348006800F003007047C8
:100F100029B1504AD26B02434E4BDA6304E04D4A8A
:100F2000D26B82434B4BDA6370474D490860704780
:100F30000021484B02689A601A46D1686FF30A0193
:100F4000D0E901231A43C3681A4303691A431143C2
:100F5000404AD16070470021016041608160C160FA
:100F6000016170473B480069C0B2704708B501464F
:100F70000020009037481430084400900098006822
:100F800008BD0021334B02685A6242689A621A46D1
:100F9000D16A21F0F701D0E902231A4303691A4309
:100FA00043691A4311432B4AD16270474FF0FF3116
:100FB0000160002141608160C16001614161704751
:100FC0002448006B704723488030006870472149EF
:100FD0008031086070471F48806C70472049143189
:100FE000086070471E491831086070471C491C3161
:100FF000086070471A492031086070471949086035
:1010000070471849091D0860704701218143154A3E
:1010100008321160704713490C310860704701466F
:1010200000200C4A526B0A400AB1012000E0002067
:10103000704708498863704701460020054A526B93
:101040000A400AB1012000E000207047014988638E
:101050007047000000800140FF07C000A000304240
:101060008C053042AC01304210B50446FB48844246
:1010700009D101218803FFF7C3FE00214FF480400E
:10108000FFF7BEFE32E0F648844209D10121480450
:10109000FFF7C3FE00214FF40030FFF7BEFE25E04E
:1010A000F048844209D101218804FFF7B6FE0021EF
:1010B0004FF48020FFF7B1FE18E0EB48844209D1DD
:1010C0000121C804FFF7A9FE00214FF40020FFF71B
:1010D000A4FE0BE0E548844208D101210805FFF792
:1010E0009CFE00214FF48010FFF797FE10BD2DE904
:1010F000F04786B005460E460024A24600BFA14632
:101100000027B08900B100BF2F462C8A4CF6FF7033
:101110000440F08804432C82AC894EF6F31004405E
:10112000B08831890843718908430443AC81AC8A93
:101130004FF6FF400440B0890443AC8201A8FFF79A
:10114000D8FDC648874202D1DDF810A001E0DDF8E5
:101150000CA0A88900F4004040B10AEBCA0000EBE3
:101160000A1031684900B0FBF1F807E00AEBCA0049
:1011700000EB0A1031688900B0FBF1F86420B8FB7D
:10118000F0F004012009642101FB1089A88900F412
:10119000004040B1322000EBC900B0FBF1F000F09C
:1011A0000700044308E0322000EB09106421B0FB83
:1011B000F1F000F00F0004432C8106B0BDE8F08789
:1011C0004FF41651016000218180C18001810C2102
:1011D000418100218181704710B502460020108AAC
:1011E0004FF2FF0318400B884C8823438C8823431D
:1011F000CC8823431843108210BD00210180418018
:101200008180C180704721B1828942F4005282817D
:1012100004E082894DF6FF731A4082817047F0B571
:101220000346002400260025002040F66A17B94234
:1012300000D100BF1846C1F3421401F01F06012778
:1012400007FA06F5012C01D10C3004E0022C01D183
:10125000103000E014301AB107682F43076002E035
:101260000768AF430760F0BD1AB1838A0B438382DE
:1012700002E0838A8B4383827047028A4FF6F073C1
:101280001A400282028A0A430282704782894FF220
:10129000FF731A40828182890A438281704721B19B
:1012A000828942F00202828104E082894FF6FD7356
:1012B0001A4082817047028A4FF6DF731A40028219
:1012C000028A0A430282704721B1028A42F48042B4
:1012D000028204E0028A4BF6FF731A4002827047D2
:1012E000C1F308028280704701468888C0F3080075
:1012F0007047818941F0010181817047028BD2B230
:101300000283028B42EA012202837047028B02F4BD
:101310007F420283028B0A430283704721B1828A93
:1013200042F02002828204E0828A4FF6DF731A4084
:101330008282704721B1828A42F01002828204E0E8
:10134000828A4FF6EF731A408282704721B1828AF7
:1013500042F00802828204E0828A4FF6F7731A4054
:101360008282704721B1828942F40042828103E087
:101370008289C2F30E028281704721B1828A42F4CF
:101380000062828204E0828A4FF2FF731A408282F6
:101390007047828A4FF6FB731A408282828A0A4320
:1013A0008282704721B1828A42F00202828204E086
:1013B000828A4FF6FD731A408282704702460020EF
:1013C000B1F5007F00D100BF13880B400BB10120A5
:1013D00000E00020704701F40072B2F5007F00D1F8
:1013E00000BFCA430280704770B502460024002344
:1013F0000025002040F66A16B14200D100BFC1F3BB
:10140000421501F01F03012606FA03F3012D02D154
:101410009689334006E0022D02D1168A334001E05E
:10142000968A33400C12012606FA04F416883440DA
:1014300013B10CB1012000E0002070BD10B50022F6
:10144000002340F66A14A14200D100BF0A12012411
:101450009440A3B2DC43048010BD0000003801407A
:101460000044004000480040004C00400050004054
:1014700005F058F905F040F80DA006F0CBF813A0E0
:1014800006F0C8F81BA006F0C5F822A006F0C2F8C6
:1014900000F084F921A006F0BDF800BFFEE701B519
:1014A00002E00098401E009000980028F9D108BD85
:1014B0000D0AB1FCBBF020475053C4A3BFE9B2E210
:1014C000CAD4C0FDB3CC0D0A000000000D0AB1BEA5
:1014D000B3CCD0F2B6D4475053C4A3BFE9B4AEBF27
:1014E000DAB4ABBBD8B5C4CAFDBEDDBDE2C2EBA366
:1014F000AC000000CAB5D1E9CAB1C7EBB8F8BFAAC1
:10150000B7A2B0E5BDD3C8EB475053C4A3BFE92091
:101510000D0A00006D61696ED2B331006D61696EB4
:10152000D2B33200704700BFFEE700BFFEE700BF46
:10153000FEE700BFFEE7704770477047704710B581
:101540001020FFF70DF940B11B48006880F0200023
:10155000194908601020FFF714F910BD70B540F26A
:1015600025511648FFF740FFB0B11448FFF7BCFE05
:10157000C5B2134800F046F8044664B1A18820685B
:101580004554A088401C80B2A0801E2804DB0C4873
:1015900000F052F800E070BD40F224410748FFF728
:1015A00023FF012806D1064800F046F80348FFF75C
:1015B0009BFEC5B200BFEEE70C0C014000440040AA
:1015C000A400002001600022426082607047014652
:1015D000D1E9002050408A68904201D10120704733
:1015E0000020FCE70146D1E90120904201D1012011
:1015F00070470020FCE7024610684000401E4B1C6C
:101600001840704710B504462046FFF7E0FF08B1C8
:10161000002010BD2169A068884204D12046A1683D
:10162000FFF7E9FF20612168491E2069084004F1A5
:10163000140151F82000ECE701698160704710B592
:1016400004462046FFF7CEFF08B1002010BDE16838
:101650006068884204D120466168FFF7CCFFE060F3
:101660002168491EE068084004F1140151F8200087
:10167000ECE700230268521EC168114000F1140219
:1016800052F821108B80C16841607047002000BF74
:1016900008E03A4951F8301019B10021374A42F8B0
:1016A0003010401C0228F4D3704710B50024334892
:1016B0000021016041608160C16002213048FFF774
:1016C00081FF00BF17E0C4EB04102E4901EB40007E
:1016D0002A4941F83400084600EBC4012848143078
:1016E00040F8241000BF00BF244951F834001E21E7
:1016F00005F0F6F8641C022CE5D300BF00BF00BF64
:1017000000BF10BD2DE9F04106460F46002517E049
:101710001B48FFF777FF044654B1705D21684855B8
:10172000A088401CA080A18817A005F073FF01E0ED
:10173000BDE8F08100BF00BF00BF00BF681CC5B29C
:10174000BD42E5DB0E48FFF777FF00BF00BF00BFDB
:1017500000BF00BFECE710B50948FFF770FF044673
:101760005CB10020A2882168885400BF00BF00BF80
:10177000206800BF0248FFF77CFF10BD94000020E6
:10178000A4000020C00000200D0A646174615F7035
:101790002D3E6C656E203D2564000000ADF5D46DD6
:1017A0004FF0000A00F010F94549016000F00CF913
:1017B0004449416000F008F94349816010A801F0F4
:1017C00060FB0BA802F020FD40A005F023FF75E0B0
:1017D0004148007860B110AB4FF480723F490BA8CC
:1017E00002F09CFF00203C4908704FF0010A0EE017
:1017F0003B48007858B110AB4FF4807239490BA8C0
:1018000002F08CFF0020364908704FF0010ABAF14F
:10181000000F53D00123082204A911A804F0BAFE36
:10182000DDE908210798CDE90121009004A80DC841
:1018300000F26C712CA005F0EDFEDDE920211046D0
:1018400000F050F906460F46DDE92221104600F06F
:1018500049F904460D4632463B462BA0CDE90045EA
:1018600005F0D8FEDDE9248342462CA005F0D2FE27
:10187000DDE9288342462EA005F0CCFEDDE92A836F
:10188000424630A005F0C6FE32A0DDE92F1205F079
:10189000C1FE3AA0EB9AEA9905F0BCFEDDE91E0113
:1018A000CDE90201DDE91C01CDE90001DDE91A8382
:1018B00042463DA005F0AEFE4FF0000A88E700006A
:1018C00037650008396500083B650008BFB4CAB237
:1018D000C3B4BFB40000000082000020C00200209A
:1018E00081000020C00300200D0ACAB1BCE42564B9
:1018F0002D253032642D253032642C25643A256440
:101900003A25640D0A0000000D0ACEB3B6C8A3BA8A
:1019100025662CBEADB6C825660D0A000D0ABAA311
:10192000B0CEB8DFB6C8A3BA256620C3D720000062
:101930000D0ACBD9B6C8A3BA2566206B6D2F6820D7
:10194000000000000D0ABABDCFF2A3BA256620B68A
:10195000C80000000D0AD5FDD4DACAB9D3C3B5C496
:10196000475053CEC0D0C7A3BA25642CBFC9BCFB17
:10197000475053CEC0D0C7A3BA2564000D0AD5FD89
:10198000D4DACAB9D3C3B5C4B1B1B6B7CEC0D0C723
:10199000A3BA25642CBFC9BCFBB1B1B6B7CEC0D0C9
:1019A000C7A3BA25640000000D0A50444F50A3BAE3
:1019B00025662C48444F50A3BA2566A3AC56444F25
:1019C00050A3BA25660000003B4870470FB430B5FD
:1019D000ADF2044DFFF7F8FF0568ADB10DF214400C
:1019E000CDF8000440F2FF316846DDF80034DDF840
:1019F000102405F037FE04460020CDF80004002C2A
:101A000002DD21466846A8470DF2044D30BC5DF862
:101A100014FB70B506460C46FFF7D6FF05681DB1EE
:101A200014B121463046A84770BD0FB430B5ADF2B1
:101A3000044DFFF7C9FF4568ADB10DF21440CDF874
:101A4000000440F2FF316846DDF80034DDF8102470
:101A500005F008FE04460020CDF80004002C02DD4D
:101A600021466846A8470DF2044D30BC5DF814FBD2
:101A70000FB430B5ADF2044DFFF7A6FF8568ADB1E8
:101A80000DF21440CDF8000440F2FF316846DDF855
:101A90000034DDF8102405F0E5FD04460020CDF803
:101AA0000004002C02DD21466846A8470DF2044DD3
:101AB00030BC5DF814FB00002800002070B504461F
:101AC0000D46F74AF74B2046294605F011F870BD40
:101AD00070B504460D46F24AF24B2046294605F001
:101AE00079F870BD2DE9FC5F04460D460022EE4BEF
:101AF0002046294605F06EF8804605F0EBF8824650
:101B000005F0D7F806460F460022E74B3046394627
:101B100004F0EEFF804622462B4604F0E6FF8246A4
:101B20000022E24B05F056F832463B46CDE9000173
:101B300004F037FF04460D4620462946BDE8FC9FC9
:101B40002DE9FC5F04460D466A462046294607F00B
:101B5000ABFB82468B460022D44B5046594604F0DC
:101B6000C7FF06460F460022CF4BDDE9000104F017
:101B7000BFFF804632463B4604F013FF04460D4645
:101B800020462946BDE8FC9F2DE9F04104460D465C
:101B900020462946FFF7A6FF0646FFF78FFFBDE860
:101BA000F0812DE9F04104460D4620462946FFF715
:101BB0008FFF0646FFF7C4FFBDE8F0812DE9FC5F0B
:101BC00004460D4616461F4600224FF0804330461D
:101BD000394607F0B3FB8046894600224FF0804328
:101BE0002046294607F0AAFB824642464B4604F0AF
:101BF000D8FECDE9000108F0DDF8BDE8FC9F70B526
:101C000004460D460022AA4B2046294604F070FFE8
:101C100070BD70B504460D460022A54B20462946EE
:101C200004F0D8FF70BD2DE9F04F8FB082468B468F
:101C3000DAE902432246DBE90261304604F052FF52
:101C4000804607F085FACDE90201DAE90021104665
:101C500007F07EFA04460D46DBE90021104607F046
:101C600077FA064622462B4604F042FFCDE90001F2
:101C7000DDE9022304F03CFFCDE90601DAE90021A9
:101C8000104608F047F804460D46DBE900211046EF
:101C900008F040F8064622462B4604F029FFCDE91D
:101CA0000401DDE9062304F07CFECDE9080106F01D
:101CB00009FE00227F4BCDE90A0104F019FFCDE9AE
:101CC0000C01DDE90C010FB0BDE8F08F0FB5DDB000
:101CD0005E9903C9CDE920015D9903C9CDE91E01D3
:101CE000DDE9202305F016F81ED15E99D1E9020145
:101CF000CDE920015D99D1E90201CDE91E01DDE9BF
:101D0000202305F007F80FD15F9818B100225F99E2
:101D10000A604A60609818B10022609802604260D0
:101D20000020014661B000BD634964485A915B9050
:101D300040076049223159915890002060495B9BCF
:101D40005A9A04F0CFFECDE92001599B589A04F02D
:101D5000CFFE57915690589A1046599B194604F059
:101D6000C7FE55915490569A1046579B194604F059
:101D7000BFFE539152905D99D1E90201CDE9200156
:101D80005E98C1688068CDE91E01DDE9202304F07A
:101D9000A9FE519150905D9903C94F914E905E9963
:101DA00003C94D914C904F994E9808F037F8CDE902
:101DB0001E01002042495B9B5A9A04F093FECDE934
:101DC0001C01DDE91E2304F093FECDE9200106F09D
:101DD000EFFF4B914A904D994C9808F01FF8CDE9D0
:101DE0001E01002036495B9B5A9A04F07BFECDE928
:101DF0001C01DDE91E2304F07BFECDE9200106F085
:101E0000D7FF499148904B994A9807F083FF479133
:101E100046904999489807F07DFF459144904B9929
:101E20004A9807F095F9439142904999489807F0EC
:101E30008FF94191409000203E903F90DDE93E01B6
:101E400007F068FFCDE93C01DDE93E0107F080F9CC
:101E5000CDE93A01002038903990DDE93823104669
:101E6000194604F045FECDE9360100213491359143
:101E700051995098CDE93201DDE9320107F04AFF6E
:101E8000CDE93001DDE9320107F062F9CDE92E013B
:101E9000DDE93201CDE92C0114202B9070E1000026
:101EA000399D52A246DF913F0000594000004E404C
:101EB000000014408454584128E1F3845A776B3F62
:101EC0000000F03FDDE930234199409804F010FE16
:101ED000CDE92001419B409A4799469804F008FEBD
:101EE000CDE90E01DDE92E2304F002FECDE9120159
:101EF00042A80FC804F0FCFDCDE91001DDE9122372
:101F000004F0F0FDCDE91E01DDE91E23104619465F
:101F100004F0EEFDCDE91001DDE92023104619465D
:101F200004F0E6FDCDE90E01DDE9102304F039FDF2
:101F3000CDE9120107F03EFFCDE93C01419B409AFB
:101F40004399429804F0D4FDCDE90E01DDE92E233A
:101F500004F0CEFDCDE91201459B449A479946987D
:101F600004F0C6FDCDE91001DDE9122304F019FDEE
:101F7000CDE93A01DDE93A23DDE93C0104F02AFE2E
:101F8000CDE91C01419B409A4399429804F0B0FD71
:101F9000CDE91001DDE9302304F0AAFDCDE91201FD
:101FA000DDE93C2304F016FECDE91A01DDE91A0152
:101FB00006F0C6FDCDE9120107F0CAF8CDE9180117
:101FC000DDE918231046194604F092FDCDE93401ED
:101FD00000204FF08041479B469A04F089FDCDE9EF
:101FE0000E01459B449A04F083FDCDE91001DDE923
:101FF000342304F0EFFDCDE91201DDE93A2304F0CA
:1020000074FDCDE93801DDE938231046194604F0A6
:102010006FFDCDE936010020FE49DDE9342304F0EF
:1020200067FD0022FC4BCDE90A0104F05EFDCDE91D
:102030000C015B9B5A9A04F05BFD0022F64BCDE944
:102040000E0104F0AEFC0022F44BCDE912015B99C5
:102050005A9804F0BFFDCDE90E01DDE9342304F008
:1020600047FDCDE91001DDE9122304F041FDCDE982
:102070001601DDE93201CDE91401DDE93C0106F08C
:102080005FFDCDE93E0100204FF08041DDE93623C0
:1020900004F02EFD0022E04B5B42CDE9000104F08C
:1020A00080FCCDE90401DDE93A23DDE9160104F005
:1020B0001FFDCDE90201DDE9042304F019FDCDE99E
:1020C0000601DDE9382304F06CFCCDE90A01DDE905
:1020D0003C23DDE9160104F00BFDCDE90801DDE943
:1020E0000A2304F005FDCDE90C01DDE93E2304F0EF
:1020F00058FCCDE910010020C949DDE9162304F0A0
:10210000F1FCCDE90A015B9B5A9A04F0F1FCCDE9A0
:102110000C01DDE91A2304F0EBFCCDE90E01DDE949
:10212000102304F0E5FCCDE91201519B509A04F014
:1021300038FCCDE93201DDE93223DDE9140104F098
:10214000D1FCCDE92C0100221346DDE92C0104F07D
:10215000E1FD05D2DDE92C0181F00041CDE92C0142
:10216000DDE9320107F0D6FDCDE93001DDE93201CC
:1021700006F0EEFFCDE92E012B98401E2B9000BFFC
:10218000A84AA94BDDE92C0104F0DCFD03D22B9811
:1021900000283FF797AE539B529A5599549804F0F4
:1021A000A1FCCDE91E01DDE9342304F0A1FCCDE959
:1021B0002001539B529A04F00DFDCDE92801002027
:1021C0009A49DDE9282304F093FC0022984BCDE9DD
:1021D000120104F08AFCCDE91401DDE9282304F0A2
:1021E00087FC0022934BCDE9160104F0DAFBCDE920
:1021F0001801DDE9282304F07BFC00228E4BCDE999
:102200001A0104F0CEFB00228C4BCDE91E01DDE962
:10221000280104F0DFFCCDE91C01DDE91E2304F0F8
:1022200067FC00227E4BCDE9200104F0BAFBCDE92A
:10223000260100208249DDE9282304F059FC002210
:10224000804BCDE9140104F050FCCDE91601DDE925
:10225000282304F04DFC00227B4BCDE9180104F04B
:10226000A0FBCDE91A01DDE9282304F041FC00229E
:10227000764BCDE91C0104F094FB0022744BCDE9B0
:102280002001DDE9280104F0A5FCCDE91E01DDE90E
:10229000202304F02DFCCDE9240100205E49DDE976
:1022A000362304F025FC00226A4BCDE90E0104F030
:1022B00078FBCDE9120100205749DDE93C2304F009
:1022C00017FCCDE90801DDE93C2304F011FC0022F4
:1022D000604BCDE90A0104F064FB00225E4BCDE9BE
:1022E0000E01DDE9240104F075FCCDE90A01DDE908
:1022F000382304F0FDFBCDE90C01DDE90E2304F0E9
:10230000F7FBCDE91001DDE9122304F0F1FBCDE983
:10231000160100204FF08041DDE9362304F0E8FB90
:1023200000223D4B5B42CDE9100104F03AFBCDE9C0
:102330001201DDE93A2304F0DBFBCDE91401DDE90C
:10234000162304F0CFFB0022334BCDE91A01DDE95F
:10235000240104F03FFCCDE91801DDE91A2304F063
:10236000C7FBCDE91C01DDE9382304F01AFBCDE9F8
:102370002001DDE93C23DDE9240104F0B9FBCDE9CE
:102380001E01DDE9202304F0B3FBCDE922015F98B3
:1023900070B3419B409A4799469804F0A9FBCDE958
:1023A0001601DDE92E2304F0A3FBCDE91A0142A8B2
:1023B0000FC804F09DFBCDE91801DDE91A2304F0F4
:1023C00091FBCDE91E01DDE930234199409804F0ED
:1023D0008FFBCDE91C01DDE91E2304F0FBFBCDE9F9
:1023E0002001DDE9200106F0E3FC5F9A03C200BF93
:1023F000609898B342A80FC804F07AFBCDE91601A3
:10240000DDE92E2304F074FBCDE91A01479981F030
:10241000004124E00000084000001040000030406F
:102420000000F03F11EA2D819997713D00E0654071
:1024300000007440000088C00000B0400000D040A0
:102440000080474000805240000060C000007040A3
:1024500000009040000008C00000184023E04698AB
:10246000CDE91601419B409A04F042FBCDE91801E9
:10247000DDE91A2304F095FACDE91E01DDE93023E8
:102480004399429804F034FBCDE91C01DDE91E2399
:1024900004F0A0FBCDE92001DDE9200106F088FC75
:1024A000609A03C200BFDDE92223DDE93E0104F0AA
:1024B00019FBCDE92001DDE926235799569804F050
:1024C00017FBCDE91E01DDE9202304F011FB29E40F
:1024D0002DE9F04F93B08146884616461F46DDE948
:1024E0001C4599E80F00CDE91023CDE90E0101202C
:1024F0000D900022FE4B2046294604F06BFB04465B
:102500000D4630463946FFF7D9FA06460F463046A3
:10251000394606F01DFECDE904012046294607F0A4
:10252000F9FBCDE90001DDE90E21104606F010FEB1
:102530008246DDE9002304F0DBFACDE90201DDE9A2
:10254000042304F0D5FACDE908012046294606F017
:10255000FFFD82468B46DDE90E21104607F0DAFBCF
:1025600052465B46CDE9040104F0C2FACDE906010A
:10257000DDE9082304F015FACDE90A0106F0E0FAD6
:10258000C8E90001D8E90021104607F0C3FB8246E4
:102590008B46DDE90E21104607F0BCFB52465B4638
:1025A000CDE9000104F0A4FACDE904012046294652
:1025B00006F0CEFDCDE90201DDE9042304F092FA34
:1025C000CDE90801DDE90E21104606F0C1FDCDE997
:1025D00004012046294607F09DFB82468B46304683
:1025E000394607F097FB52465B46CDE9000104F0FF
:1025F0007FFACDE90201DDE9042304F079FACDE99F
:102600000601DDE9082306F0E3FCCDE90A01DDE976
:1026100010A3524604F0C5F9C8E90201D8E9002127
:10262000104605F049F828B9D8E90221104605F00E
:1026300043F850B10021C8F80010C8F80410C8F8D9
:102640000810C8F80C1000200D900D9813B0BDE8CC
:10265000F08F1FB5E0B0679921F000416698A54A58
:10266000A54BCDE9180104F055FB21D26199609882
:1026700090E81C00C06881E81C00C860689818B128
:10268000689A6399629803C2619903C9CDE91801F8
:1026900005F012F850B96199D1E90201CDE91801AC
:1026A00005F00AF810B9012064B010BD0020FBE766
:1026B000924993485E915F90400792495D915C908A
:1026C000002091495F9B5E9A04F00CFACDE9180155
:1026D0005D9B5C9A04F00CFA5B915A905C9A1046F0
:1026E0005D9B194604F004FA599158905A9A104685
:1026F0005B9B194604F0FCF957915690609903C909
:10270000559154905599549807F088FBCDE91801DC
:1027100000207D495F9B5E9A04F0E4F9CDE9160143
:10272000DDE9182304F0E4F953915290529A1046CF
:10273000539B194604F0DCF90022734BCDE91401D8
:1027400004F02FF9CDE9160107F034FB02460B46E1
:10275000CDE9180100206C4904F03CFA4F914E90ED
:102760004F9B4E9A5399529804F0C2F95191509050
:10277000679966984D914C90639962984B914A90F5
:102780004B994A9807F0C6FA499148904B994A9854
:1027900006F0DEFC47914690479B469A5399529823
:1027A00004F018FA45914490479B469A53995298E1
:1027B00006F00EFC43914290499B489A4F994E98DF
:1027C00004F096F941914090409A1046419B194679
:1027D00004F08EF900224C4BCDE9180104F085F984
:1027E000CDE93C01DDE93C0107F0E4FACDE93E0129
:1027F000579B569A5999589804F074F9CDE91601E7
:10280000DDE93C2304F074F9CDE91801579B569A91
:1028100004F0E0F9CDE93A0100203C49DDE93A2332
:1028200004F066F900223A4BCDE90A0104F05DF9A3
:10283000CDE90C01DDE93A2304F05AF90022354BC9
:10284000CDE90E0104F0ADF8CDE91001DDE93A2340
:1028500004F04EF90022304BCDE9120104F0A1F84A
:1028600000222E4BCDE91601DDE93A0104F0B2F960
:10287000CDE91401DDE9162304F03AF90022224BD8
:10288000CDE9180104F08DF8CDE938010020244984
:10289000DDE93A2304F02CF90022224BCDE90C01AA
:1028A00004F023F9CDE90E01DDE93A2304F020F923
:1028B00000221D4BCDE9100104F073F8CDE912019F
:1028C000DDE93A2304F014F90022184BCDE9140194
:1028D00004F067F80022164BCDE91801DDE93A0152
:1028E00004F078F9CDE91601DDE9182322E00000B3
:1028F00000EAB84011EA2D819997713D28E1F384EF
:102900005A776B3FA65458410000F03F00E0654005
:1029100000007440000088C00000B0400000D040BB
:102920000080474000805240000060C000007040BE
:102930000000904004F0DCF8CDE93601DDE93823F1
:102940005B995A9804F0D4F802460B46CDE9180179
:102950004D994C9804F03EF9CDE93401DDE934019C
:10296000CDE93201DDE9320107F0D4F9CDE92E01DC
:10297000DDE9320106F0ECFBCDE92C0100204FF03F
:102980008041439B429A04F0B3F8CDE91601DDE99A
:10299000322304F006F8CDE9180106F0D9FBCDE9A1
:1029A0002A01DDE92A231046194604F0A1F8CDE9F1
:1029B000280100BFFD48FE49CDE9300114202590D3
:1029C000AFE000204FF08041439B429A04F090F822
:1029D000CDE91601DDE9322303F0E3FFCDE918016B
:1029E00006F0B6FBCDE92A01DDE92A231046194697
:1029F00004F07EF8CDE92801DDE9320107F08AF91B
:102A0000CDE92E01DDE9320106F0A2FBCDE92C0172
:102A10000020E849DDE9282304F06AF80022E64BAB
:102A2000CDE9060103F0BDFFCDE90A010020E1492F
:102A3000DDE92E2304F05CF8CDE90001DDE92E2369
:102A400004F056F80022DC4BCDE9020103F0A9FFA7
:102A50000022DA4BCDE90601DDE9360104F0BAF8CF
:102A6000CDE90201DDE92A2304F042F8CDE90401B1
:102A7000DDE9062304F03CF8CDE90801DDE90A238D
:102A800004F036F8CDE90E0100204FF08041DDE979
:102A9000282304F02DF80022C64B5B42CDE9080143
:102AA00003F07FFFCDE90A01DDE92C2304F020F8D3
:102AB000CDE90C01DDE90E2304F014F80022BD4B32
:102AC000CDE91201DDE9360104F084F8CDE9100109
:102AD000DDE9122304F00CF8CDE91401DDE92A2325
:102AE00003F05FFFCDE91801DDE92E23DDE93601B2
:102AF00003F0FEFFCDE91601DDE9182303F0F8FF2E
:102B0000CDE92601DDE93201CDE93001DDE92623F9
:102B1000DDE9340103F045FFCDE932012598401E7F
:102B20002590DDE93023DDE9320103F0DBFF21F000
:102B30000041A34AA34BCDE9180104F003F903D2E5
:102B4000259800283FF73DAFDDE92C234F994E989B
:102B500003F0CEFFCDE91401479B469A03F0C8FF6E
:102B6000CDE91801DDE92E235199509803F0C0FFFB
:102B7000CDE91601DDE9182303F0B4FFCDE9220108
:102B8000DDE922231046194603F0B2FFCDE90E011C
:102B9000409A1046419B194603F0AAFFCDE90C016B
:102BA000DDE90E2303F0FDFECDE9100107F002F987
:102BB000CDE91401002084495F9B5E9A03F092FFE7
:102BC000CDE91201DDE9142303F092FFCDE91801EC
:102BD000DDE92E234F994E9803F08AFFCDE91001CD
:102BE000479B469A03F084FFCDE91401DDE92C23CD
:102BF0005199509803F07CFFCDE91201DDE91423CF
:102C000003F0CFFECDE91601DDE9182306F0E0F967
:102C1000CDE92001DDE92E235199509803F068FF9A
:102C2000CDE91001479B469A03F062FFCDE91401FC
:102C3000DDE92C234F994E9803F05AFFCDE912019C
:102C4000DDE9142303F04EFFCDE91801499B489AB2
:102C5000DDE92E0103F04CFFCDE91601DDE9182373
:102C600006F0B6F9CDE91E0100205849DDE93C2304
:102C700003F03EFF00224F4BCDE9100103F035FF7A
:102C8000CDE912015F9B5E9A03F032FF0022494BAF
:102C9000CDE9140103F085FE00224D4BCDE918016A
:102CA0005F995E9803F096FFCDE91401DDE93C23BE
:102CB00003F01EFFCDE91601DDE9182303F018FF2C
:102CC000CDE91C0100204FF08041DDE9282303F00D
:102CD0000FFF0022374B5B42CDE9060103F061FE96
:102CE000CDE90A01DDE92C23DDE91C0103F000FF39
:102CF000CDE90801DDE90A2303F0FAFECDE90C0174
:102D0000DDE92A2303F04DFECDE91001DDE92E2394
:102D1000DDE91C0103F0ECFECDE90E01DDE9102335
:102D200003F0E6FECDE91201DDE9322303F039FEBE
:102D3000CDE9160100202449DDE91C2303F0D2FE71
:102D4000CDE910015F9B5E9A03F0D2FECDE912013E
:102D5000419B409A03F0CCFECDE91401DDE9162336
:102D600003F0C6FECDE91801DDE91E2303F0BDFE28
:102D7000CDE91A016098D0E902120846CDE918029F
:102D800019A90EC903F00DFE619AC2E90201619A08
:102D9000DDE9200103C26898E0B3DDE92C234F99F7
:102DA0004E9803F0A5FECDE9120113E0182D44540E
:102DB000FB21194000001040000008C0000018402E
:102DC00011EA2D819997713D0000F03F0000084005
:102DD00000003040479B469A03F08AFECDE9160179
:102DE000519981F000415098CDE91201DDE92E237F
:102DF00003F07EFECDE91401DDE9162303F0D1FDD9
:102E000002460B46CDE918014199409806F0E0F8DA
:102E1000689A03C2619903C9CDE9180104F04CFC1A
:102E200048B96198C1688068CDE9180104F044FC94
:102E300008B9012038E4002036E470B504460D4698
:102E4000D4E910211046FEF79FFEC5E90001D4E940
:102E500012211046FEF798FEC5E9020170BD70B55B
:102E600004460D46D4E900211046FEF79AFEC5E956
:102E70001001D4E902211046FEF793FEC5E91201C4
:102E800070BD10B504464FF4CC61204603F028FD18
:102E9000201D01F0D7FC002020620120606210BDDF
:102EA000FEB506460D4614460027062D06D0082D11
:102EB00016D0092D15D00A2D28D113E004F11400E5
:102EC000011F0B1FFEA2CDE900102946304601F07C
:102ED00038FD032801D1012000E0002007461AE058
:102EE00000BF00BF04F11800011F0A1F131FCDE926
:102EF00000210290F5A22946304601F022FD042867
:102F000001D1012000E00020074604E0F3A0FEF715
:102F10008CFD002700BF00BF0FB10020FEBD4FF0A9
:102F2000FF30FBE770B505460C46052C01DA0020A2
:102F300070BDF34805220168284603F0EDFC08B98E
:102F40000120F5E7EE4805224168284603F0E4FC3D
:102F500008B90220ECE7EA4805228168284603F018
:102F6000DBFC08B90420E3E7E5480522C1682846F0
:102F700003F0D2FC08B90820DAE7E148052201692C
:102F8000284603F0C9FC08B91020D1E7DC48052227
:102F90004169284603F0C0FC08B92020C8E7D8489A
:102FA00005228169284603F0B7FC08B94020BFE735
:102FB000D3480522C169284603F0AEFC08B9802039
:102FC000B6E7CF480522016A284603F0A5FC10B9F0
:102FD0004FF48070ACE7CA480522416A284603F0E6
:102FE0009BFC10B94FF40070A2E7C5480522816A26
:102FF000284603F091FC10B94FF4806098E7C04870
:103000000522C16A284603F087FC10B94FF400601E
:103010008EE7BB480522016B284603F07DFC10B902
:103020004FF4805084E7002082E72DE9F047044602
:103030000F46154604EB07080026B146701E2860AF
:1030400029E02078242802D10EB1002425E0207840
:103050002A281AD1601D404516D8E0780D2813D1D2
:1030600020790A2810D110220221601C01F002FCF4
:103070002860601DA8EB00003E1A2868484503D070
:103080004FF0FF302860002407E016B1207880EA76
:103090000909641C761C4445D3D300BF2868002866
:1030A00001DA04B100263046BDE8F087F0B5CDB0B6
:1030B00005460E4614468021204603F011FC314699
:1030C0002846FEF7A6FC04F1780004F1700104F133
:1030D000680204F16003CDE90932CDE90B10203814
:1030E0002039203A203BCDE90532CDE907101C38C4
:1030F000011F183A183BCDE90132CDE903101C3805
:103100000DAB80A231460090284601F01AFC0E2833
:1031100005D089A0FEF789FC00204DB0F0BD0DA8B8
:1031200003F0E9FB0746224639460DA8FFF7B8FE33
:1031300020B186A0FEF779FC0020EEE70120ECE745
:1031400070B590B005460E461446B821204603F0EF
:10315000C7FB31462846FEF75CFC04F1B00104F1E0
:10316000A80204F1A00304F13400CDE90D320F915F
:103170000C90011F0A1F131F1038CDE909320B9163
:103180000890011F0A1F131F1038CDE9053207915F
:103190000490011F0838021F231DCDE90032CDE93C
:1031A000020123466FA23146284601F0CAFB1128CE
:1031B00005D07BA0FEF739FC002010B070BD0120C7
:1031C000FBE72DE9F04192B00746884614465C21A2
:1031D000204603F085FB41463846FEF71AFC04F111
:1031E00058010A1F131F04F14800CDE90F32119155
:1031F0000E90011F0A1F131F1438CDE90B320D91D9
:103200000A90011F0A1F131F1438CDE907320991D4
:103210000690011F0A1F0C381C3BCDE90230CDE996
:1032200004210C38211D2346624ACDE90010414695
:10323000384601F086FB06466068401E8500281D62
:10324000A168814202DAA068401B00E00420054624
:10325000032000EB8505AE4201DB132E06DD56A0F0
:10326000FEF7E3FB002012B0BDE8F0810120FAE791
:103270002DE9F041CEB006460F46144660212046A7
:1032800003F02EFB39463046FEF7C3FB04F159002C
:10329000411E04F15002CDE90942CDE90B10201D79
:1032A000011D083A04F14003CDE90532CDE90710CC
:1032B00034302831203A203BCDE9013286E000004D
:1032C00025326425326425326400000025326425ED
:1032D00032642532642E2564000000005061727350
:1032E00065206F662074696D65206572726F72204B
:1032F00028666F726D6174206572726F7229210089
:10330000380000202447504747412C25732C256660
:103310002C25432C25662C25432C25642C25642C38
:1033200025662C25662C25432C25662C25432C252B
:10333000662C25642A0000004750474741207061F1
:10334000727365206572726F7221000047504747A3
:10335000412074696D6520706172736520657272B9
:103360006F7221002447504753412C25432C25647C
:103370002C25642C25642C25642C25642C25642C98
:1033800025642C25642C25642C25642C25642C258F
:10339000642C25642C25662C25662C25662A0000C5
:1033A0004750475341207061727365206572726F98
:1033B0007221000094A200084750475356207061C4
:1033C000727365206572726F72210000CDE903107F
:1033D0001C380EABF6A239460090304601F0B1FA27
:1033E00005460D2D08D00E2D06D0FEA0FEF71DFBC4
:1033F00000204EB0BDE8F0810EA803F07CFA8046B4
:10340000224641460EA8FFF74BFD20B1FAA0FEF779
:103410000CFB0020EDE72068643020600120E8E725
:1034200070B588B005460E4614464021204603F08C
:1034300057FA31462846FEF7ECFA04F1380004F159
:10344000300104F1280204F12003CDE90332CDE973
:10345000051020382039203A2346CDE9002102907A
:10346000EBA23146284601F06CFA082805D0F0A0FE
:10347000FEF7DBFA002008B070BD207A54280AD18C
:10348000207E4D2807D194F828004E2803D194F8C7
:1034900038004B2804D0EBA0FEF7C7FA0020EAE77B
:1034A0000120E8E7F0B5CDB005460E461446802170
:1034B000204603F015FA31462846FEF7AAFA04F131
:1034C000780004F1700104F1680204F16003CDE9B1
:1034D0000932CDE90B1020382039203A203BCDE9C4
:1034E0000532CDE907101C38011F183A183BCDE909
:1034F0000132CDE903101C380DABDBA23146009040
:10350000284601F01EFA0E2805D0E4A0FEF78DFA39
:1035100000204DB0F0BD0DA803F0EDF9074622469E
:1035200039460DA8FFF7BCFC20B1E1A0FEF77DFAFB
:103530000020EEE70120ECE72DE9F041CEB0064691
:103540000F4614466021204603F0CAF9394630463A
:10355000FEF75FFA04F15900411E04F15002CDE973
:103560000942CDE90B10201D011D083A04F140036A
:10357000CDE90532CDE9071034302831203A203B1F
:10358000CDE90132CDE903101C380EABCEA239468D
:103590000090304601F0D5F905460D2D08D00E2DCE
:1035A00006D0D6A0FEF741FA00204EB0BDE8F0816B
:1035B0000EA803F0A0F98046224641460EA8FFF768
:1035C0006FFC20B1D2A0FEF730FA0020EDE72068B2
:1035D000643020600120E8E770B588B005460E46EB
:1035E00014464021204603F07BF931462846FEF779
:1035F00010FA04F13900411E04F1300204F12803ED
:10360000CDE90432CDE9061019382039203A203BA3
:10361000CDE90032CDE902102346C3A23146284647
:1036200001F08FF9092805D0C8A0FEF7FEF90020A7
:1036300008B070BD207A54280AD1207E4D2807D1C9
:1036400094F828004E2803D194F838004B2804D071
:10365000C3A0FEF7EAF90020EAE70120E8E72DE938
:10366000F041C8B005460E4614461C21204603F022
:1036700037F931462846FEF7CCF945A946AA47ABAB
:10368000201DCDE9023204910190001D05ABBDA2C1
:1036900031460090284601F054F907464798A0F2B9
:1036A0006C702060062F06D0BEA0FEF7BEF9002089
:1036B00048B0BDE8F08105A803F01DF98046224618
:1036C000414605A8FFF7ECFB20B1BBA0FEF7ADF922
:1036D0000020EDE70120EBE72DE9F041C6B00546FB
:1036E0000E4614464021204603F0FAF8314628469B
:1036F000FEF78FF904F13900411E06AB04F1180200
:10370000CDE90223CDE90410293830392346B0A28F
:10371000CDE900103146284601F013F90746072F7E
:1037200006D0B3A0FEF781F9002046B0BDE8F081D5
:1037300006A803F0E0F8804604F11C02414606A802
:10374000FFF7AEFB20B1AFA0FEF76FF90020ECE76A
:103750000120EAE72DE9F04192B007468846144679
:103760005C21204603F0BCF841463846FEF751F98B
:1037700004F158010A1F131F04F14800CDE90F326C
:1037800011910E90011F0A1F131F1438CDE90B323F
:103790000D910A90011F0A1F131F1438CDE907323B
:1037A00009910690011F0A1F0C381C3B36E10000EE
:1037B000244750524D432C25732C25432C25662C31
:1037C00025432C25662C25432C25662C25662C2587
:1037D00032642532642532642C25662C25432C2541
:1037E000432A00004750524D432070617273652098
:1037F0006572726F722100004750524D4320746908
:103800006D65207061727365206572726F72210040
:103810002447505654472C25662C25432C25662CCE
:1038200025432C25662C25432C25662C25432A0070
:103830004750565447207061727365206572726FED
:103840007221000047505654472070617273652002
:103850006572726F722028666F726D617420657276
:10386000726F72292100000024474E4747412C25E2
:10387000732C25662C25432C25662C25432C25648A
:103880002C25642C25662C25662C25432C25662C9E
:1038900025432C25662C25642A000000474E474707
:1038A00041207061727365206572726F7221000031
:1038B000474E4747412074696D652070617273659A
:1038C000206572726F72210024474E524D432C25A1
:1038D000732C25432C25662C25432C25662C25434B
:1038E0002C25662C25662C2532642532642532640D
:1038F0002C25662C25432C25432A0000474E524D8B
:1039000043207061727365206572726F72210000CE
:10391000474E524D432074696D6520706172736526
:10392000206572726F72210024474E5654472C2531
:10393000662C25432C25662C25432C25662C2543F7
:103940002C25662C25432C25432A0000474E56542F
:1039500047207061727365206572726F722100007A
:10396000474E565447207061727365206572726FBE
:10397000722028666F726D6174206572726F722991
:103980002100000024474E5A44412C25732C253237
:10399000642C2532642C2534642C2532642C253289
:1039A000642A0000474E5A444120706172736520BA
:1039B0006572726F72210000474E5A44412074694B
:1039C0006D65207061727365206572726F7221007F
:1039D00024474E474C4C2C25662C25432C25662C21
:1039E00025432C25732C25432C25432A0000000059
:1039F000474E474C4C207061727365206572726F40
:103A000072210000474E474C4C2074696D65207050
:103A100061727365206572726F722100CDE90230A8
:103A2000CDE904210C38211D2346FD4ACDE90010C3
:103A30004146384600F085FF06466068401E850016
:103A4000281DA168814202DAA068401B00E0042022
:103A50000546032000EB8505AE4201DB132E06DD93
:103A6000F0A0FDF7E2FF002012B0BDE8F0810120D8
:103A7000FAE7FEB505460E46144600202060606059
:103A8000A06031462846FDF7C4FFEB4A04F1080068
:103A9000211D2346CDE901020091E8A231462846C6
:103AA00000F04FFF0746042F04D0EAA0FDF7BDFF4A
:103AB0000020FEBD0120FCE7C3680B6103694B6178
:103AC00043698B618369CB61C26B0A62D0E91223BF
:103AD000C1E90C23D0E91423C1E9142390F828206C
:103AE0004E2A02D1D0E9082303E0D0E9082383F06D
:103AF0000043C1E9102390F83820452A02D1D0E9CB
:103B00000C2303E0D0E90C2383F00043C1E9122326
:103B10000A6842F001020A607047F0B500243830AC
:103B200050F8345C4D62D0E91A56C1E90A56D0E922
:103B30001C56C1E90C56D0E91E653838C1E90E653E
:103B4000002221E000231AE000F1080555F8225078
:103B5000A5B100F1080555F8226003EB830701F1D8
:103B6000840555F82750AE4208D1012603EB8307A0
:103B700001F1840505EB87056E60641C5B1C8025E4
:103B80006D589D42E0DC521C252ADBDBCC670D68BA
:103B900045F002050D60F0BD70B590B005460E46CB
:103BA0001446B821204602F09BFE31462846FDF718
:103BB00030FF04F1B00104F1A80204F1A00304F104
:103BC0003400CDE90D320F910C90011F0A1F131F15
:103BD0001038CDE909320B910890011F0A1F131FFD
:103BE0001038CDE9053207910490011F0838021FF3
:103BF000231DCDE90032CDE9020123469AA23146C8
:103C0000284600F09EFE112805D0A6A0FDF70DFF66
:103C1000002010B070BD0120FBE7F0B5D0E90065D1
:103C2000B54204DC25264568B6EB850F00DAF0BD09
:103C30004568012D01DA01254560802586686E50B2
:103C400045686D1EAC00251D8668AE4202DA8568A7
:103C50002D1B00E004252C4600223AE045686D1E2D
:103C600002EB850302EB820600F10C0555F8266095
:103C700003EB830701F1840545F8276002EB820618
:103C800000F10C0505EB860503EB8307AE6801F137
:103C9000840505EB8705AE6002EB820600F10C059A
:103CA00005EB860503EB8307EE6801F1840505EB60
:103CB0008705EE6002EB820600F10C0505EB860538
:103CC00003EB83072E6901F1840505EB87052E615F
:103CD000521CA242C2DB0D6845F004050D6000BF16
:103CE000A5E72DE9F04105460C46287F412809D17A
:103CF000206A08B902202062606A012809D10220E6
:103D0000606206E0287F562803D10020206201204F
:103D100060621C222946201D02F0C9FD95F828008A
:103D20004E2802D1D5E9080103E0D5E9080181F068
:103D30000041C4E9100195F83800452802D1D5E9C1
:103D40000C0103E0D5E90C0181F00041C4E9120146
:103D5000594A5A4BD5E91061304602F0C9FEC4E910
:103D60001801D5E91201C4E91A01206840F00800E1
:103D70002060BDE8F081D0E90023C1E91A23D0E931
:103D80000423C1E91C23D0E90C23C1E918230A68E4
:103D900042F010020A607047C3680B6103694B610F
:103DA00043698B618369CB61C26B0A62D0E91223DC
:103DB000C1E90C23D0E91423C1E9142390F8282089
:103DC0004E2A02D1D0E9082303E0D0E9082383F08A
:103DD0000043C1E9102390F83820452A02D1D0E9E8
:103DE0000C2303E0D0E90C2383F00043C1E9122344
:103DF000026CCA670A6842F480520A6070472DE973
:103E0000F04105460C46287F412859D1206A08B95F
:103E100002202062606A012859D10220606256E0C7
:103E200050A20008424447535620706172736520C7
:103E30006572726F72210000FC000020244750540C
:103E400058542C2532642C2532642C2532642C25C0
:103E5000732A0000475054585420706172736520D3
:103E60006572726F722100002442444753412C2531
:103E7000432C25642C25642C25642C25642C256476
:103E80002C25642C25642C25642C25642C25642C7D
:103E900025642C25642C25642C25662C25662C2570
:103EA000662A0000424447534120706172736520C6
:103EB0006572726F722100006F1283C0CAA1FD3F4C
:103EC000287F562803D100202062012060621C2236
:103ED0002946201D02F0EBFC95F828004E2802D15F
:103EE000D5E9080103E0D5E9080181F00041C4E902
:103EF000100195F83800452802D1D5E90C0103E0FE
:103F0000D5E90C0181F00041C4E91201D5E91001A5
:103F1000C4E91601A64AA74BD5E91061304602F064
:103F2000E7FDC4E91801D5E91201C4E91A0195F8C1
:103F3000590084F87800206840F400602060BDE8F3
:103F4000F081D0E90023C1E91A23D0E90423C1E9B3
:103F50001C23D0E90823C1E91623D0E90C23C1E9C9
:103F6000182390F8392081F878200A6842F480629A
:103F70000A60704770B505460C461C222946201D74
:103F800002F095FC206840F48070206070BD90F8CD
:103F90003820412A09D10A6A0AB902220A624A6A09
:103FA000012A0AD102224A6207E090F83820562AF4
:103FB00003D100220A6201224A62027A4E2A02D109
:103FC000D0E9002303E0D0E9002383F00043C1E9F6
:103FD0001023027E452A02D1D0E9042303E0D0E970
:103FE000042383F00043C1E91223836A0B61C36A8F
:103FF0004B61036B8B61436BCB6190F8392081F887
:1040000078200A6842F400720A607047F0B5D0E97F
:104010000065B54204DC25264568B6EB850F00DA5D
:10402000F0BD4568012D01DA012545604FF45B754F
:1040300086686E5045686D1EAC00251D8668AE42D0
:1040400002DA85682D1B00E004252C4600223AE0A8
:1040500045686D1E02EB850302EB820600F10C053C
:1040600055F8266003EB830701F55C7545F827607A
:1040700002EB820600F10C0505EB860503EB8307D6
:10408000AE6801F55C7505EB8705AE6002EB820654
:1040900000F10C0505EB860503EB8307EE6801F5DF
:1040A0005C7505EB8705EE6002EB820600F10C05FE
:1040B00005EB860503EB83072E6901F55C7505EBBF
:1040C00087052E61521CA242C2DB0D6845F04005F7
:1040D0000D6000BFA4E7F0B50024383010F8385C5C
:1040E0004D62D0E91A56C1E90A56D0E91C56C1E919
:1040F0000C56D0E91E653838C1E90E65002222E071
:1041000000231AE000F1080555F82250A5B100F18E
:10411000080555F8226003EB830701F55C7555F837
:104120002750AE4208D1012603EB830701F55C75E9
:1041300005EB87056E60641C5B1C4FF45B756D5866
:104140009D42DFDC521C252ADADBC1F868430D688A
:1041500045F080050D60F0BD70B505460C46A868B9
:10416000C4F854061448C4F85806D4F8540620B9C4
:10417000114912A0FDF77CFC19E0D4F8540601287F
:1041800004D10D4911A0FDF773FC10E0D4F85406DA
:10419000022804D1084912A0FDF76AFC07E0D4F810
:1041A0005406072803D1044912A0FDF761FC70BD35
:1041B0006F1283C0CAA1FD3FFC0000204750545835
:1041C00054206572726F723A20257300475054581C
:1041D00054207761726E696E673A20257300000083
:1041E0004750545854206E6F746963653A202573A4
:1041F00000000000475054585420757365722069C0
:104200006E666F3A2025730070B504460026FDF7F0
:10421000DBFBC568FF2D01DC4FF4807514212046BF
:1042200002F05EFB284605F009F8A06018B9FCA072
:10423000FDF7FBFB01E0E5600126304670BD70B57F
:10424000054600262C6874B1606810B1606804F0FF
:10425000CDFF2668A0682860286808B9002068603B
:10426000204604F0C3FF304670BD10B5044602E09E
:104270002046FFF7E4FF20680028F9D1012010BD97
:1042800010B50446A06804F0B1FF2046FFF7EDFF2B
:104290001421204602F024FB10BD2DE9F041044614
:1042A0000E46002725685DB1686830602F68A868F1
:1042B0002060206808B900206060284604F096FF5E
:1042C0003846BDE8F08101460020086101207047B2
:1042D0002DE9F84F05468A469046002600242869B5
:1042E0004044E968884202DB2846FFF7ECFF2A6970
:1042F000A96888184246514602F0D9FA2869404414
:10430000286100BF2A69911BAA6890196A46FEF7C6
:104310008CFE074657B946B12B699B1B1A462B6189
:10432000AB689919184602F0C2FACFE1009800284C
:1043300074DB2A69921B511EAA683244501CFEF796
:10434000F1FD81460C2004F079FF041E00D1C1E18B
:1043500000206060B9F1400F7CD014DCB9F1080F87
:104360007DD009DCB9F1010F22D0B9F1020F3AD0AA
:10437000B9F1040F70D152E0B9F1100F6DD0B9F15D
:10438000200FF7D173E1B9F5806F67D009DCB9F17F
:10439000800F7CD0B9F5807F7AD0B9F5007FE9D164
:1043A00007E1B9F5006F74D0B9F5805FE2D190E014
:1043B000802004F043FF606000B98BE101202060A1
:1043C0006268A96888193946FEF770FE50B96068BE
:1043D00020B1606804F00AFF00206060204604F00D
:1043E00005FF002463E1B82004F028FF606000B9F5
:1043F00070E1022020606268A96888193946FEF7DA
:104400009FFE50B9606820B1606804F0EFFE0020A4
:104410006060204604F0EAFE002448E153E15C209D
:1044200004F00CFF606000B954E104202060626871
:10443000A96888193946FEF7C4FE50B9606820B1F2
:10444000606804F0D3FE00206060204604F0CEFED9
:1044500000242CE1C9E002E024E11FE071E06020CB
:1044600004F0ECFE606000B934E10820206062686E
:10447000A96888193946FEF7FBFE70B9606820B15B
:10448000606804F0B3FE00206060204602E0D3E0E4
:1044900073E03AE004F0AAFE002408E1402004F0B2
:1044A000CDFE606000B915E1102020606268A96847
:1044B00088193946FEF7B4FF50B9606820B16068CA
:1044C00004F094FE00206060204604F08FFE00247B
:1044D000EDE0802004F0B2FE606000B9FAE04FF435
:1044E000805020606268A96888193946FEF7DAFFB3
:1044F00050B9606820B1606804F078FE0020606008
:10450000204604F073FE0024D1E0602004F096FE03
:10451000606000B9DEE04FF4006020606268A96866
:1045200088193946FFF708F850B9606820B160680B
:1045300004F05CFE00206060204604F057FE00247A
:10454000B5E0402004F07AFE606000B9C2E04FF4AC
:10455000806020606268A96888193946FFF73CF8D6
:1045600050B9606820B1606804F040FE00206060CF
:10457000204604F03BFE002499E01C2004F05EFE7F
:10458000606000B9A6E04FF4807020606268A9689E
:1045900088193946FFF763F850B9606820B1606840
:1045A00004F024FE00206060204604F01FFE00247A
:1045B0007DE0402004F042FE606000B98AE04FF4E4
:1045C000007020606268A96888193946FFF784F88E
:1045D00050B9606820B1606804F008FE0020606097
:1045E000204604F003FE002461E05C2004F026FE77
:1045F000606000B96EE0402020606268A968881998
:104600003946FFF7A7F850B9606820B1606804F038
:10461000EDFD00206060204604F0E8FD002446E047
:10462000496E73756666696369656E74206D656D44
:104630006F72792100000000B82004F0FFFD606077
:1046400000B947E0802020606268A968881939466F
:10465000FFF7A2FA50B9606820B1606804F0C6FDA7
:1046600000206060204604F0C1FD00241FE00C2003
:1046700004F0E4FD606000B92CE020202060626856
:10468000A96888193946FFF7F4F950B9606820B174
:10469000606804F0ABFD00206060204604F0A6FDD9
:1046A000002404E0204604F0A1FD002400BF00BF68
:1046B0004CB1686808B1686884606C60286800B9AB
:1046C0002C600020A0603E4400241BE600BF304662
:1046D000BDE8F88F14B1204604F088FDAFF2C000A9
:1046E000FDF7A3F94FF0FF30F2E72DE9F041054661
:1046F00088461446002700BFE868A04201DAEE6849
:1047000000E02646324641462846FFF7E1FD0744D1
:10471000A41B002CF0D13846BDE8F0812DE9F84308
:104720000746884691461D460026002000904A46CE
:1047300041463846FFF7D9FF6BE0761C402C55D038
:104740000EDC082C2FD006DC012C1DD0022C20D032
:10475000042C5AD122E0102C2AD0202C55D14FE025
:10476000B4F5806F33D008DC802C44D0B4F5807F62
:1047700032D0B4F5007F48D133E0B4F5006F21D0DA
:10478000B4F5805F41D118E029460098FFF794F90D
:104790003BE029460098FFF7C0F936E0294600982B
:1047A000FFF73BFA31E029460098FFF79AFA2CE030
:1047B00029460098FFF7DFFA27E029460098FFF71F
:1047C000EBFA22E029460098FFF719FB1DE0294685
:1047D0000098FFF7B6FB18E029460098FFF7CAFBE0
:1047E00013E029460098FFF7D2FB0EE02946009817
:1047F000FFF70CFC09E029460098FFF76CFC04E089
:1048000029460098FFF7A8FC00BF00BF009804F0FD
:10481000EDFC69463846FFF740FD041E8DD1304659
:10482000BDE8F883014600200A6802B110687047AD
:1048300010B502460B460020116811B14C681C608F
:10484000086810BD72210160002141600121816072
:104850000021C160016141618161704710B502466C
:104860000B460020002102E0545C6040491C994244
:10487000FADB10BDF0B5C1B005460C461646002760
:10488000FF2C0DDC22462946684602F010F8002075
:104890000DF80400324640A9684602F04AF807467F
:1048A000384641B0F0BDF0B5C1B007460C46002116
:1048B0000D460E46FF2C0DDC22463946684601F0B7
:1048C000F6FF00200DF8040040A9684605F098FAAC
:1048D00005460E462846314641B0F0BD0FB42DE9DD
:1048E000F84306460D460027002D04DC0020BDE8F5
:1048F000F8035DF814FB0BA8009029463046009B96
:104900000A9A02F0AFFE0446002C0BDD611E701CFB
:10491000FFF7A4FF8046291B301943468FA202F0FF
:1049200089FE07463C44002C01DBAC4205DD202219
:104930002946304601F0CDFF2C460020009020464D
:10494000D5E70FB42DE9FF5F04468B4604EB0B0857
:104950000120029000264FF00009002001908246BD
:10496000009011A80390EAE00298012806D00228DE
:1049700013D0032817D004280ED12BE0109800780C
:10498000252802D10220029006E014F8011B10989D
:104990000078814200D0D9E0CDE00026DDF84090DB
:1049A0000320029000BF01F075FF0068109909789C
:1049B000405C202800D1BEE00420029010984845B9
:1049C00007D91098A0EB09010A224846FFF752FFC9
:1049D000064600BF27466EB910980078632803D0BA
:1049E00010980078432805D120781099497888429A
:1049F00000D001262EB1A019404501D834440DE065
:104A0000A4E01098407840B1A8EB040210984178D7
:104A1000204601F077FF041E00D14446444500D9EA
:104A200094E0012002900098401C00900025E61BB5
:104A300010980078632812D008DC432810D045284D
:104A400028D0472824D0532830D112E0652820D020
:104A500066281BD067281AD0732827D108E000BF2A
:104A6000039820C8039016B10DB1387828701DE066
:104A700000BF039820C803903EB135B13246394695
:104A8000284601F014FF0020A8550FE000BF00BF2A
:104A900000BF00BF039820C8039036B12DB1314646
:104AA0003846FFF700FFC5E9000100BF00BF05B1B0
:104AB00041E0039802C80D1E039000D13BE006B907
:104AC00039E0109800786F2829D006DC58281DD0CE
:104AD000642807D069282BD105E075280CD07828E8
:104AE00026D112E000BF0A2231463846FFF7C2FE47
:104AF0000190019828601CE00A2231463846FFF7F1
:104B0000B9FE8246C5F800A013E000BF102231466E
:104B10003846FFF7AFFE8246C5F800A009E008223C
:104B200031463846FFF7A6FE8246C5F800A000E0F1
:104B30000CE000BF00BF00BF1098401C1090109800
:104B4000007810B14445FFF40FAF00BF0020039080
:104B5000009804B0BDE8F01F5DF814FB2A25303240
:104B6000780D0A0008B50020FCF7BFF90020FCF71B
:104B7000BFF9FCF78FF900214FF48060FCF719F9B9
:104B80004FF4F850ADF8000004208DF8030069469A
:104B9000FA48FBF75FFE0420ADF800006946F848CC
:104BA000FBF758FE08BD10B5F648FBF723FD10BD16
:104BB00030B58BB005460C46F348FBF72FFD0021BE
:104BC000F248FBF7FCFCF2480090019500200290AF
:104BD000A00803900020049080200590800006909B
:104BE00080000790002008904FF4005009900020AA
:104BF0000A906946E548FBF7B7FC0121E348FBF75B
:104C0000DEFC0BB030BD30B58BB005460C46DE483F
:104C1000FBF704FD0021DD48FBF7D1FCDC480090E8
:104C2000019510200290A00803900020049080209D
:104C300005908000069080000790002008904FF4B7
:104C40000050099000200A906946D048FBF78CFC80
:104C50000121CE48FBF7B3FC0BB030BD08B50121F4
:104C60003020FCF7B3F84FF4F850ADF80000032003
:104C70008DF8020018208DF803006946BF48FBF745
:104C8000E9FD0420ADF800006946BD48FBF7E2FDF0
:104C900001218802FCF78DF801210220FCF789F838
:104CA00008BD014600BFBA488038406B00F045009F
:104CB0000028F8D040F2FF50B54A803A9063104681
:104CC000406908221040C0B270472DE9FC410746F8
:104CD0000D46002600240020009001900820AD49D8
:104CE000086010204860402088600020C8604FF4B1
:104CF000806008610846FCF71BF91020FFF7D1FF20
:104D0000044614B12046BDE8FC81A3480088000495
:104D1000A049086037204860402088600020C860B3
:104D20004FF4806008610846FCF702F93720FFF76E
:104D3000B8FF04460CB12046E5E74FF0FF30974935
:104D4000086008204860302088600220C860002089
:104D50000861012048610846FCF713F900208D49DD
:104D6000086033204860402088600020C8604FF40D
:104D7000806008610846FCF7DBF83320FFF791FFFD
:104D800004460CB12046BEE70CE04FF40010FCF7DF
:104D900046F938B1FCF717F94DF82600761C012EBC
:104DA00000D907E07A488038406B40F22A61084019
:104DB0000028EAD000BF0820FCF731F928B108200C
:104DC000FCF737F9042420469DE70220FCF727F979
:104DD00028B10220FCF72DF90224204693E7202079
:104DE000FCF71DF928B12020FCF723F90624204602
:104DF00089E74FF40070FCF712F930B14FF40070FE
:104E0000FCF717F9072420467DE740F2FF50FCF736
:104E100010F900980006009901F47F4140EA012052
:104E2000009901F47F0140EA1120009940EA1160E5
:104E3000686001980006019901F47F4140EA012071
:104E4000019901F47F0140EA1120019940EA1160C3
:104E50002860204657E77CB50546002400200090D6
:104E60000190FCF783F800F0007010B10E2420468A
:104E70007CBD4949098888B26946FFF726FF044688
:104E80000CB12046F4E7012D36D1019800F48020C2
:104E900000282ED04048008800043E490860372092
:104EA0004860402088600020C860A8020861084669
:104EB000FCF73EF83720FFF7F4FE04460CB120461D
:104EC000D6E7022033490860062048604020886009
:104ED0000020C8604FF4806008610846FCF728F89D
:104EE0000620FFF7DEFE04460CB12046C0E7204650
:104EF000BEE725242046BBE7019800F4803078B354
:104F00002548008800042349086037204860402075
:104F100088600020C8604FF4806008610846FCF794
:104F200007F83720FFF7BDFE04460CB120469FE787
:104F30000020184908600620486040208860002052
:104F4000C8604FF4806008610846FBF7F1FF062057
:104F5000FFF7A7FE04460CB1204689E7204687E705
:104F6000FFE72524204683E770B5044600250C485A
:104F70000068032816D12725284670BD001001407F
:104F8000001401400020001000F000104404024012
:104F9000808001409402002070000020A8020020C0
:104FA0006C000020F748006838B1F6480068012816
:104FB00003D0F448006802282ED1B4F5805F02D1F6
:104FC00027252846D9E7B4F5006F14D10120FFF753
:104FD00042FF054605BB0120EB490875002008602B
:104FE000486088604FF40060C8600020086108468F
:104FF000FBF75EFF10E00020FFF72DFF05465DB9CF
:105000000120E14908750020086048608860C86098
:1050100008610846FBF74CFF2846AEE770B504462A
:105020000025DA4804600720D8494860402088609D
:105030000020C8604FF4806008610846FBF778FFE5
:105040000720FFF72EFE0546284670BD30B5014605
:1050500000200022CB4B1B7881F84E30CC4B1B88B4
:10506000A1F84C30CB4B1B681A0E93090B70C2F39E
:1050700083034B7002F003038B70C64B1B68C3F3B2
:105080000742CA70C34B1B88C3F307220A71C14B86
:105090001A784A715B681A0E1301CB80BD4B5B68AE
:1050A000C3F30742CB8843EA1213CB8002F00F030D
:1050B0000B72B84B9B88C3F30722D3094B72C2F320
:1050C00080138B72C2F34013CB72C2F300130B73C5
:1050D00000234B73AB4B1B681BB1AA4B1B68012B06
:1050E0003CD193071B0D0B61AA4B1A790B6943EA5C
:1050F00082030B61A74B9B681A0E0B6943EA92135C
:105100000B61C2F3C2030B7502F007034B75A14B91
:105110009B68C3F3074253098B75C2F38203CB75B7
:1051200093075B0F0B769B4B1B89C3F307220B7E08
:1051300043EAD2130B760B695B1C4B640C7E4B6C01
:10514000A41C0125A5406B434B640C7A0123A340AA
:105150008B64D1E9113463434B6421E0894B1B68B4
:10516000022B1DD18B4B1A7993069B0A0B61894B3D
:105170009B681A0E0B6943EA02230B61854B9B68FF
:10518000C3F307420B6913430B61824B1B89C3F3C3
:1051900007220B695B1CDB044B644FF400738B64C8
:1051A000C2F3801301F8193F93065B0E4B70794BE5
:1051B0001A7A4B7843EAD2134B7002F07F038B705C
:1051C000744BDB681A0ED309CB70C2F341130B7119
:1051D000C2F382034B7193071B0F8B716D4BDB681E
:1051E000C3F307428B7943EA92138B71C2F34013E6
:1051F000CB7100230B7202F001034B72654B9B894C
:10520000C3F30722D3098B72C2F38013CB72C2F3AC
:1052100040130B73C2F300134B73C2F381038B7300
:1052200002F00303CB735B4B1A7B53080B7401230F
:105230004B74594B1B681A0ECA741939564B1B68AC
:10524000C3F307421402CC85534B1B88C3F30722D8
:10525000CB8D1343CB85504B1A7814060C635B68D7
:105260001A0E0B6B43EA02440C634B4B5B68C3F3AF
:1052700007420B6B43EA02240C63474B9B88C3F342
:1052800007220B6B13430B63434B1A7934235A5495
:10529000414B9B681A0E35235A543F4B9B68C3F30E
:1052A000074214068C633C4B1B89C3F307228B6BAC
:1052B00043EA02448C63384B1A7A8B6B43EA02242C
:1052C0008C63354BDB681A0E8B6B13438B63324B4D
:1052D000DB68C3F307423C235B5C43EA12143C23C4
:1052E0005C5413071C0DCC872B4B9B89C3F30722FF
:1052F000CB8F1343CB87284B1A7B540840235C5435
:10530000012441235C5430BD70B500252348446B13
:1053100001E02248446B04F045000028F9D004F075
:10532000040028B103250420FBF783FE284670BD46
:1053300004F0010028B101250120FBF77AFE284680
:10534000F5E740F2FF50FBF774FE2846EFE72DE942
:10535000F04106460F464FF000081048456B01E04B
:105360000E48456B05F045000028F9D005F0040013
:10537000B0B14FF003080420FBF75BFE4046BDE8E8
:10538000F08100006C0000207C02002094020020CC
:1053900070000020FC0100200C0200200080014071
:1053A00005F0010030B14FF001080120FBF741FE8C
:1053B0004046E4E7FBF7D6FDB04203D04FF01008BB
:1053C0004046DCE740F2FF50FBF733FE0020FBF7DE
:1053D000CDFD044604F4604018B9200C38804046E6
:1053E000CDE704F4005008B11320C8E704F480406E
:1053F00008B11020C3E704F4004008B10F20BEE755
:105400004046BCE738B5002401200090FBF77BFD47
:1054100010B92524204638BDF7480068042828D054
:105420000020F649086002204860C0208860002003
:10543000C8604FF4806008610846FBF779FDFFF70C
:1054400063FF04460CB12046E5E70020FBF78EFD24
:10545000EB4908600420FBF789FDE9494860082012
:10546000FBF784FDE64988600C20FBF77FFDE449EB
:10547000C860E148006858B1DF480068012807D0DB
:10548000DD480068062803D0DB480068022816D1F2
:105490000020DA490860032048604020886000202E
:1054A000C8604FF4806008610846FBF741FD69461B
:1054B0000320FFF74CFF04460CB12046ABE7CE4873
:1054C000006804282ED0BDF80000CE490860BDF861
:1054D00000000004C949086009204860C0208860B5
:1054E0000020C8604FF4806008610846FBF720FD8B
:1054F000FFF70AFF04460CB120468CE70020FBF7BB
:1055000035FDC14908600420FBF730FDBE49486005
:105510000820FBF72BFDBC4988600C20FBF726FD1B
:10552000B949C8600024204675E770B50025B74822
:10553000446B01E0B548446B04F045000028F9D005
:1055400004F0040028B103250420FBF772FD28466F
:1055500070BD40F2FF50FBF76CFD2846F8E770B5D0
:1055600000264FF48035A948446B02E06D1EA74821
:10557000446B04F0450008B9002DF7D115B104F0D3
:10558000040028B103260420FBF753FD304670BD0C
:1055900004F0400028B100264020FBF74AFD3046C9
:1055A000F5E73046F3E770B500254FF4803400E0AE
:1055B000641E24B18020FBF732FD0028F8D014B916
:1055C0000325284670BD40F2FF50FBF732FD284608
:1055D000F8E72DE9F0410024002600250027A04629
:1055E000B2208B4908750020086048608860C86058
:1055F00008610846FBF75CFC0320FBF779FC0120FF
:10560000FBF773FC00207D49086048608860C86033
:105610004FF4806008610846FBF78AFCFFF7C3FF80
:10562000044614B12046BDE8F0814FF4D5707349AB
:10563000086008204860402088600020C8604FF45F
:10564000806008610846FBF773FCFFF788FF04469B
:105650002CB90120684908604FF0804812E0002012
:105660006649086037204860402088600020C86094
:105670004FF4806008610846FBF75AFC3720FFF7BB
:1056800010FB044600205D49086037204860402038
:1056900088600020C8604FF4806008610846FBF70E
:1056A00047FC3720FFF7FDFA0446002C4AD136E0CC
:1056B0000020524908603720486040208860002060
:1056C000C8604FF4806008610846FBF731FC372062
:1056D000FFF7E7FA04460CB12046A4E74D4848EA34
:1056E000000046490860292048604020886000206A
:1056F000C8604FF4806008610846FBF719FCFFF7AB
:1057000014FF04460CB120468DE70020FBF72EFC69
:105710000646012080EAD67080F001076D1C1FB993
:105720004FF6FF708542C3D34FF6FF70854202D318
:105730001B24204677E706F08040061E02D0022098
:105740002D49086020466EE710B50024FFF786FA61
:10575000FBF7A0FBFFF73DFF04460CB1204610BD50
:10576000FFF750FE04460CB12046F8E70120284917
:1057700008750020086048608860C86008610846B5
:10578000FBF796FB1CB92448FFF760FC044634B9CC
:105790002149B1F84C100804FFF740FC044624B935
:1057A0004FF40060FFF7E0FB04462046D7E770B5F2
:1057B000044600251348008800041449886040F21C
:1057C0004D40C8600D20FFF76CFA05460DB1284624
:1057D00070BD0E48406920602846F9E708B50020F2
:1057E00000906846FFF7E3FF08B1FF2008BD00986E
:1057F000C0F34320FAE700006C0000209402002070
:105800000C02002070000020FC01002000800140FC
:105810007C020020000010802C02002010B504241F
:10582000FFF7DCFF0446042C01D1002010BDFF2C43
:1058300001D10220FAE70120F8E710B5002400208A
:10584000FBF756FB204610BD70B504460025002628
:105850000020FBF78BFB00F0007010B10E252846EE
:1058600070BD4020FC4908601020486040208860DE
:105870000020C8604FF4806008610846FBF758FBC1
:105880001020FFF70EFA05460DB12846E8E7F34869
:1058900000880004F0490860372048604020886094
:1058A0000020C8604FF4806008610846FBF740FBA9
:1058B0003720FFF7F6F905460DB12846D0E74FF03F
:1058C000FF30E7490860402048606020886002207F
:1058D000C86000200861012048610846FBF751FBC1
:1058E0000020DD4908600D204860402088600020CD
:1058F000C8604FF4806008610846FBF719FB0D2073
:10590000FFF7CFF905460DB12846A9E70EE04FF4A1
:105910000040FBF784FB48B1002604E0FBF753FB93
:1059200044F82600761C082EF8D32034CD48406B6E
:1059300040F22A6108400028E9D00820FBF76FFBFD
:1059400028B10820FBF775FB0425284688E70220CC
:10595000FBF765FB28B10220FBF76BFB022528460D
:105960007EE72020FBF75BFB28B12020FBF761FBE3
:105970000625284674E74FF40070FBF750FB30B162
:105980004FF40070FBF755FB0725284668E703E056
:10599000FBF719FB2060241D4FF40010FBF73FFBC1
:1059A0000028F5D140F2FF50FBF743FB284657E7AC
:1059B00070B5044600260025AB48FFF745FF0646B4
:1059C0000EB1304670BDA848007885092570A648FC
:1059D0000078C0F340156570A34885782802608080
:1059E000A148C5786088284360809F4805792806CB
:1059F00060609D484579606840EA054060609A486B
:105A00008579606840EA052060609748C5796068DC
:105A1000284360609448057A2572457A6572807AD9
:105A20000509A5729048C57A2802A0818E48057B99
:105A3000A0892843A0818C48407B8508A5738A48AB
:105A4000407B00F00305E5733046BBE72DE9F041EC
:105A500007460D46144600260020844908708449F4
:105A60000860844908607F49C8628348006802284A
:105A700001D104026D0A784804601020764948601C
:105A8000402088600020C8604FF4806008610846AC
:105A9000FBF74EFA1020FFF704F9064616B1304620
:105AA000BDE8F0814FF0FF306D4908600846446062
:105AB000902088600220C8600020086101204861B1
:105AC0000846FBF75EFA64480560112062494860A9
:105AD000402088600020C8604FF48060086108465C
